{
  "_format": "hh-sol-artifact-1",
  "contractName": "Escrow",
  "sourceName": "contracts/Escrow.sol",
  "abi": [
    {
      "inputs": [
        {
          "internalType": "address",
          "name": "seller",
          "type": "address"
        },
        {
          "internalType": "uint256",
          "name": "amount",
          "type": "uint256"
        }
      ],
      "stateMutability": "nonpayable",
      "type": "constructor"
    },
    {
      "anonymous": false,
      "inputs": [
        {
          "indexed": true,
          "internalType": "bytes32",
          "name": "role",
          "type": "bytes32"
        },
        {
          "indexed": true,
          "internalType": "bytes32",
          "name": "previousAdminRole",
          "type": "bytes32"
        },
        {
          "indexed": true,
          "internalType": "bytes32",
          "name": "newAdminRole",
          "type": "bytes32"
        }
      ],
      "name": "RoleAdminChanged",
      "type": "event"
    },
    {
      "anonymous": false,
      "inputs": [
        {
          "indexed": true,
          "internalType": "bytes32",
          "name": "role",
          "type": "bytes32"
        },
        {
          "indexed": true,
          "internalType": "address",
          "name": "account",
          "type": "address"
        },
        {
          "indexed": true,
          "internalType": "address",
          "name": "sender",
          "type": "address"
        }
      ],
      "name": "RoleGranted",
      "type": "event"
    },
    {
      "anonymous": false,
      "inputs": [
        {
          "indexed": true,
          "internalType": "bytes32",
          "name": "role",
          "type": "bytes32"
        },
        {
          "indexed": true,
          "internalType": "address",
          "name": "account",
          "type": "address"
        },
        {
          "indexed": true,
          "internalType": "address",
          "name": "sender",
          "type": "address"
        }
      ],
      "name": "RoleRevoked",
      "type": "event"
    },
    {
      "anonymous": false,
      "inputs": [],
      "name": "balanceRefunded",
      "type": "event"
    },
    {
      "anonymous": false,
      "inputs": [],
      "name": "balanceReleased",
      "type": "event"
    },
    {
      "anonymous": false,
      "inputs": [
        {
          "indexed": false,
          "internalType": "address",
          "name": "Buyer",
          "type": "address"
        }
      ],
      "name": "buyerJoined",
      "type": "event"
    },
    {
      "anonymous": false,
      "inputs": [],
      "name": "transactionOverridden",
      "type": "event"
    },
    {
      "inputs": [],
      "name": "DEFAULT_ADMIN_ROLE",
      "outputs": [
        {
          "internalType": "bytes32",
          "name": "",
          "type": "bytes32"
        }
      ],
      "stateMutability": "view",
      "type": "function"
    },
    {
      "inputs": [],
      "name": "MIDDLEMAN_ROLE",
      "outputs": [
        {
          "internalType": "bytes32",
          "name": "",
          "type": "bytes32"
        }
      ],
      "stateMutability": "view",
      "type": "function"
    },
    {
      "inputs": [],
      "name": "escrowInfo",
      "outputs": [
        {
          "internalType": "address payable",
          "name": "buyer",
          "type": "address"
        },
        {
          "internalType": "address payable",
          "name": "seller",
          "type": "address"
        },
        {
          "internalType": "uint256",
          "name": "amount",
          "type": "uint256"
        },
        {
          "internalType": "enum Escrow.EscrowStatus",
          "name": "escrowStatus",
          "type": "uint8"
        }
      ],
      "stateMutability": "view",
      "type": "function"
    },
    {
      "inputs": [
        {
          "internalType": "bytes32",
          "name": "role",
          "type": "bytes32"
        }
      ],
      "name": "getRoleAdmin",
      "outputs": [
        {
          "internalType": "bytes32",
          "name": "",
          "type": "bytes32"
        }
      ],
      "stateMutability": "view",
      "type": "function"
    },
    {
      "inputs": [
        {
          "internalType": "bytes32",
          "name": "role",
          "type": "bytes32"
        },
        {
          "internalType": "address",
          "name": "account",
          "type": "address"
        }
      ],
      "name": "grantRole",
      "outputs": [],
      "stateMutability": "nonpayable",
      "type": "function"
    },
    {
      "inputs": [
        {
          "internalType": "bytes32",
          "name": "role",
          "type": "bytes32"
        },
        {
          "internalType": "address",
          "name": "account",
          "type": "address"
        }
      ],
      "name": "hasRole",
      "outputs": [
        {
          "internalType": "bool",
          "name": "",
          "type": "bool"
        }
      ],
      "stateMutability": "view",
      "type": "function"
    },
    {
      "inputs": [],
      "name": "join",
      "outputs": [],
      "stateMutability": "payable",
      "type": "function"
    },
    {
      "inputs": [
        {
          "internalType": "uint256",
          "name": "action",
          "type": "uint256"
        }
      ],
      "name": "overrideRelease",
      "outputs": [],
      "stateMutability": "nonpayable",
      "type": "function"
    },
    {
      "inputs": [],
      "name": "refund",
      "outputs": [],
      "stateMutability": "nonpayable",
      "type": "function"
    },
    {
      "inputs": [],
      "name": "release",
      "outputs": [],
      "stateMutability": "nonpayable",
      "type": "function"
    },
    {
      "inputs": [
        {
          "internalType": "bytes32",
          "name": "role",
          "type": "bytes32"
        },
        {
          "internalType": "address",
          "name": "account",
          "type": "address"
        }
      ],
      "name": "renounceRole",
      "outputs": [],
      "stateMutability": "nonpayable",
      "type": "function"
    },
    {
      "inputs": [
        {
          "internalType": "bytes32",
          "name": "role",
          "type": "bytes32"
        },
        {
          "internalType": "address",
          "name": "account",
          "type": "address"
        }
      ],
      "name": "revokeRole",
      "outputs": [],
      "stateMutability": "nonpayable",
      "type": "function"
    },
    {
      "inputs": [
        {
          "internalType": "bytes4",
          "name": "interfaceId",
          "type": "bytes4"
        }
      ],
      "name": "supportsInterface",
      "outputs": [
        {
          "internalType": "bool",
          "name": "",
          "type": "bool"
        }
      ],
      "stateMutability": "view",
      "type": "function"
    }
  ],
  "bytecode": "0x60806040523480156200001157600080fd5b50604051620032d2380380620032d28339818101604052810190620000379190620002c8565b81600260010160006101000a81548173ffffffffffffffffffffffffffffffffffffffff021916908373ffffffffffffffffffffffffffffffffffffffff16021790555080600280018190555033600160006101000a81548173ffffffffffffffffffffffffffffffffffffffff021916908373ffffffffffffffffffffffffffffffffffffffff160217905550620001197fca8f4d80b9a601aeb89c087307d2965aac1bb4efd751b2467c503e418ab0a286600160009054906101000a900473ffffffffffffffffffffffffffffffffffffffff166200012160201b60201c565b50506200037b565b6200013382826200013760201b60201c565b5050565b6200014982826200022860201b60201c565b6200022457600160008084815260200190815260200160002060000160008373ffffffffffffffffffffffffffffffffffffffff1673ffffffffffffffffffffffffffffffffffffffff16815260200190815260200160002060006101000a81548160ff021916908315150217905550620001c96200029260201b60201c565b73ffffffffffffffffffffffffffffffffffffffff168173ffffffffffffffffffffffffffffffffffffffff16837f2f8788117e7eff1d82e926ec794901d17c78024a50270940304540a733656f0d60405160405180910390a45b5050565b600080600084815260200190815260200160002060000160008373ffffffffffffffffffffffffffffffffffffffff1673ffffffffffffffffffffffffffffffffffffffff16815260200190815260200160002060009054906101000a900460ff16905092915050565b600033905090565b600081519050620002ab8162000347565b92915050565b600081519050620002c28162000361565b92915050565b60008060408385031215620002dc57600080fd5b6000620002ec858286016200029a565b9250506020620002ff85828601620002b1565b9150509250929050565b600062000316826200031d565b9050919050565b600073ffffffffffffffffffffffffffffffffffffffff82169050919050565b6000819050919050565b620003528162000309565b81146200035e57600080fd5b50565b6200036c816200033d565b81146200037857600080fd5b50565b612f47806200038b6000396000f3fe6080604052600436106100c25760003560e01c806386d1a69f1161007f578063b688a36311610059578063b688a36314610252578063c565a0e41461025c578063d547741f14610287578063f3d25904146102b0576100c2565b806386d1a69f146101d357806391d14854146101ea578063a217fddf14610227576100c2565b806301ffc9a7146100c75780630b2f13d014610104578063248a9ca31461012d5780632f2ff15d1461016a57806336568abe14610193578063590e1ae3146101bc575b600080fd5b3480156100d357600080fd5b506100ee60048036038101906100e99190612297565b6102de565b6040516100fb91906126af565b60405180910390f35b34801561011057600080fd5b5061012b600480360381019061012691906122c0565b610358565b005b34801561013957600080fd5b50610154600480360381019061014f9190612232565b610d17565b60405161016191906126ca565b60405180910390f35b34801561017657600080fd5b50610191600480360381019061018c919061225b565b610d36565b005b34801561019f57600080fd5b506101ba60048036038101906101b5919061225b565b610d5f565b005b3480156101c857600080fd5b506101d1610de2565b005b3480156101df57600080fd5b506101e86112e5565b005b3480156101f657600080fd5b50610211600480360381019061020c919061225b565b6117e7565b60405161021e91906126af565b60405180910390f35b34801561023357600080fd5b5061023c611851565b60405161024991906126ca565b60405180910390f35b61025a611858565b005b34801561026857600080fd5b50610271611b5c565b60405161027e91906126ca565b60405180910390f35b34801561029357600080fd5b506102ae60048036038101906102a9919061225b565b611b80565b005b3480156102bc57600080fd5b506102c5611ba9565b6040516102d5949392919061266a565b60405180910390f35b60007f7965db0b000000000000000000000000000000000000000000000000000000007bffffffffffffffffffffffffffffffffffffffffffffffffffffffff1916827bffffffffffffffffffffffffffffffffffffffffffffffffffffffff19161480610351575061035082611c14565b5b9050919050565b7fca8f4d80b9a601aeb89c087307d2965aac1bb4efd751b2467c503e418ab0a28661038a81610385611c7e565b611c86565b600160048111156103c4577f4e487b7100000000000000000000000000000000000000000000000000000000600052602160045260246000fd5b600260030160009054906101000a900460ff16600481111561040f577f4e487b7100000000000000000000000000000000000000000000000000000000600052602160045260246000fd5b1461044f576040517f08c379a0000000000000000000000000000000000000000000000000000000008152600401610446906127e7565b60405180910390fd5b60036004811115610489577f4e487b7100000000000000000000000000000000000000000000000000000000600052602160045260246000fd5b600260030160009054906101000a900460ff1660048111156104d4577f4e487b7100000000000000000000000000000000000000000000000000000000600052602160045260246000fd5b1415610515576040517f08c379a000000000000000000000000000000000000000000000000000000000815260040161050c90612787565b60405180910390fd5b6002600481111561054f577f4e487b7100000000000000000000000000000000000000000000000000000000600052602160045260246000fd5b600260030160009054906101000a900460ff16600481111561059a577f4e487b7100000000000000000000000000000000000000000000000000000000600052602160045260246000fd5b14156105db576040517f08c379a00000000000000000000000000000000000000000000000000000000081526004016105d290612727565b60405180910390fd5b600480811115610614577f4e487b7100000000000000000000000000000000000000000000000000000000600052602160045260246000fd5b600260030160009054906101000a900460ff16600481111561065f577f4e487b7100000000000000000000000000000000000000000000000000000000600052602160045260246000fd5b14156106a0576040517f08c379a0000000000000000000000000000000000000000000000000000000008152600401610697906127c7565b60405180910390fd5b60008260038111156106db577f4e487b7100000000000000000000000000000000000000000000000000000000600052602160045260246000fd5b9050600047905060038081111561071b577f4e487b7100000000000000000000000000000000000000000000000000000000600052602160045260246000fd5b826003811115610754577f4e487b7100000000000000000000000000000000000000000000000000000000600052602160045260246000fd5b14156108dd576000600260000160009054906101000a900473ffffffffffffffffffffffffffffffffffffffff1673ffffffffffffffffffffffffffffffffffffffff16826040516107a590612600565b60006040518083038185875af1925050503d80600081146107e2576040519150601f19603f3d011682016040523d82523d6000602084013e6107e7565b606091505b505090508061082b576040517f08c379a000000000000000000000000000000000000000000000000000000000815260040161082290612867565b60405180910390fd5b6004600260030160006101000a81548160ff0219169083600481111561087a577f4e487b7100000000000000000000000000000000000000000000000000000000600052602160045260246000fd5b02179055507ffd810080a5a034a8b991d08e8f631faa8cd682225f7800ee4c0c22cc6d9c75dc60405160405180910390a17f966ec6091e1be18ca42bd33bf7e8c91b6f7f9e63b4505d736f12daf434dd0c3e60405160405180910390a150610d11565b60026003811115610917577f4e487b7100000000000000000000000000000000000000000000000000000000600052602160045260246000fd5b826003811115610950577f4e487b7100000000000000000000000000000000000000000000000000000000600052602160045260246000fd5b1415610ad9576000600260000160009054906101000a900473ffffffffffffffffffffffffffffffffffffffff1673ffffffffffffffffffffffffffffffffffffffff16826040516109a190612600565b60006040518083038185875af1925050503d80600081146109de576040519150601f19603f3d011682016040523d82523d6000602084013e6109e3565b606091505b5050905080610a27576040517f08c379a0000000000000000000000000000000000000000000000000000000008152600401610a1e90612867565b60405180910390fd5b6003600260030160006101000a81548160ff02191690836004811115610a76577f4e487b7100000000000000000000000000000000000000000000000000000000600052602160045260246000fd5b02179055507ffd810080a5a034a8b991d08e8f631faa8cd682225f7800ee4c0c22cc6d9c75dc60405160405180910390a17fa7118f61710911efdd7217a437bf1e08cd90e0386e03d6d4cbe1498f799d6f1260405160405180910390a150610d10565b60016003811115610b13577f4e487b7100000000000000000000000000000000000000000000000000000000600052602160045260246000fd5b826003811115610b4c577f4e487b7100000000000000000000000000000000000000000000000000000000600052602160045260246000fd5b1415610cd4576000600260010160009054906101000a900473ffffffffffffffffffffffffffffffffffffffff1673ffffffffffffffffffffffffffffffffffffffff1682604051610b9d90612600565b60006040518083038185875af1925050503d8060008114610bda576040519150601f19603f3d011682016040523d82523d6000602084013e610bdf565b606091505b5050905080610c23576040517f08c379a0000000000000000000000000000000000000000000000000000000008152600401610c1a90612867565b60405180910390fd5b60028060030160006101000a81548160ff02191690836004811115610c71577f4e487b7100000000000000000000000000000000000000000000000000000000600052602160045260246000fd5b02179055507ffd810080a5a034a8b991d08e8f631faa8cd682225f7800ee4c0c22cc6d9c75dc60405160405180910390a17f966ec6091e1be18ca42bd33bf7e8c91b6f7f9e63b4505d736f12daf434dd0c3e60405160405180910390a150610d0f565b6040517f08c379a0000000000000000000000000000000000000000000000000000000008152600401610d0690612747565b60405180910390fd5b5b5b50505050565b6000806000838152602001908152602001600020600101549050919050565b610d3f82610d17565b610d5081610d4b611c7e565b611c86565b610d5a8383611d23565b505050565b610d67611c7e565b73ffffffffffffffffffffffffffffffffffffffff168173ffffffffffffffffffffffffffffffffffffffff1614610dd4576040517f08c379a0000000000000000000000000000000000000000000000000000000008152600401610dcb906128a7565b60405180910390fd5b610dde8282611e03565b5050565b600260010160009054906101000a900473ffffffffffffffffffffffffffffffffffffffff1673ffffffffffffffffffffffffffffffffffffffff163373ffffffffffffffffffffffffffffffffffffffff1614610e75576040517f08c379a0000000000000000000000000000000000000000000000000000000008152600401610e6c90612887565b60405180910390fd5b60016004811115610eaf577f4e487b7100000000000000000000000000000000000000000000000000000000600052602160045260246000fd5b600260030160009054906101000a900460ff166004811115610efa577f4e487b7100000000000000000000000000000000000000000000000000000000600052602160045260246000fd5b14610f3a576040517f08c379a0000000000000000000000000000000000000000000000000000000008152600401610f31906127e7565b60405180910390fd5b60036004811115610f74577f4e487b7100000000000000000000000000000000000000000000000000000000600052602160045260246000fd5b600260030160009054906101000a900460ff166004811115610fbf577f4e487b7100000000000000000000000000000000000000000000000000000000600052602160045260246000fd5b1415611000576040517f08c379a0000000000000000000000000000000000000000000000000000000008152600401610ff790612787565b60405180910390fd5b6002600481111561103a577f4e487b7100000000000000000000000000000000000000000000000000000000600052602160045260246000fd5b600260030160009054906101000a900460ff166004811115611085577f4e487b7100000000000000000000000000000000000000000000000000000000600052602160045260246000fd5b14156110c6576040517f08c379a00000000000000000000000000000000000000000000000000000000081526004016110bd90612727565b60405180910390fd5b6004808111156110ff577f4e487b7100000000000000000000000000000000000000000000000000000000600052602160045260246000fd5b600260030160009054906101000a900460ff16600481111561114a577f4e487b7100000000000000000000000000000000000000000000000000000000600052602160045260246000fd5b141561118b576040517f08c379a0000000000000000000000000000000000000000000000000000000008152600401611182906127c7565b60405180910390fd5b60004790506000600260000160009054906101000a900473ffffffffffffffffffffffffffffffffffffffff1673ffffffffffffffffffffffffffffffffffffffff16826040516111db90612600565b60006040518083038185875af1925050503d8060008114611218576040519150601f19603f3d011682016040523d82523d6000602084013e61121d565b606091505b5050905080611261576040517f08c379a000000000000000000000000000000000000000000000000000000000815260040161125890612867565b60405180910390fd5b6003600260030160006101000a81548160ff021916908360048111156112b0577f4e487b7100000000000000000000000000000000000000000000000000000000600052602160045260246000fd5b02179055507fa7118f61710911efdd7217a437bf1e08cd90e0386e03d6d4cbe1498f799d6f1260405160405180910390a15050565b600260000160009054906101000a900473ffffffffffffffffffffffffffffffffffffffff1673ffffffffffffffffffffffffffffffffffffffff163373ffffffffffffffffffffffffffffffffffffffff1614611378576040517f08c379a000000000000000000000000000000000000000000000000000000000815260040161136f906127a7565b60405180910390fd5b600160048111156113b2577f4e487b7100000000000000000000000000000000000000000000000000000000600052602160045260246000fd5b600260030160009054906101000a900460ff1660048111156113fd577f4e487b7100000000000000000000000000000000000000000000000000000000600052602160045260246000fd5b1461143d576040517f08c379a0000000000000000000000000000000000000000000000000000000008152600401611434906127e7565b60405180910390fd5b60036004811115611477577f4e487b7100000000000000000000000000000000000000000000000000000000600052602160045260246000fd5b600260030160009054906101000a900460ff1660048111156114c2577f4e487b7100000000000000000000000000000000000000000000000000000000600052602160045260246000fd5b1415611503576040517f08c379a00000000000000000000000000000000000000000000000000000000081526004016114fa90612787565b60405180910390fd5b6002600481111561153d577f4e487b7100000000000000000000000000000000000000000000000000000000600052602160045260246000fd5b600260030160009054906101000a900460ff166004811115611588577f4e487b7100000000000000000000000000000000000000000000000000000000600052602160045260246000fd5b14156115c9576040517f08c379a00000000000000000000000000000000000000000000000000000000081526004016115c090612727565b60405180910390fd5b600480811115611602577f4e487b7100000000000000000000000000000000000000000000000000000000600052602160045260246000fd5b600260030160009054906101000a900460ff16600481111561164d577f4e487b7100000000000000000000000000000000000000000000000000000000600052602160045260246000fd5b141561168e576040517f08c379a0000000000000000000000000000000000000000000000000000000008152600401611685906127c7565b60405180910390fd5b60004790506000600260010160009054906101000a900473ffffffffffffffffffffffffffffffffffffffff1673ffffffffffffffffffffffffffffffffffffffff16826040516116de90612600565b60006040518083038185875af1925050503d806000811461171b576040519150601f19603f3d011682016040523d82523d6000602084013e611720565b606091505b5050905080611764576040517f08c379a000000000000000000000000000000000000000000000000000000000815260040161175b90612867565b60405180910390fd5b60028060030160006101000a81548160ff021916908360048111156117b2577f4e487b7100000000000000000000000000000000000000000000000000000000600052602160045260246000fd5b02179055507f966ec6091e1be18ca42bd33bf7e8c91b6f7f9e63b4505d736f12daf434dd0c3e60405160405180910390a15050565b600080600084815260200190815260200160002060000160008373ffffffffffffffffffffffffffffffffffffffff1673ffffffffffffffffffffffffffffffffffffffff16815260200190815260200160002060009054906101000a900460ff16905092915050565b6000801b81565b60006004811115611892577f4e487b7100000000000000000000000000000000000000000000000000000000600052602160045260246000fd5b600260030160009054906101000a900460ff1660048111156118dd577f4e487b7100000000000000000000000000000000000000000000000000000000600052602160045260246000fd5b1461191d576040517f08c379a000000000000000000000000000000000000000000000000000000000815260040161191490612767565b60405180910390fd5b600073ffffffffffffffffffffffffffffffffffffffff16600260000160009054906101000a900473ffffffffffffffffffffffffffffffffffffffff1673ffffffffffffffffffffffffffffffffffffffff16146119b1576040517f08c379a00000000000000000000000000000000000000000000000000000000081526004016119a890612847565b60405180910390fd5b600280015434146119f7576040517f08c379a00000000000000000000000000000000000000000000000000000000081526004016119ee90612807565b60405180910390fd5b600260010160009054906101000a900473ffffffffffffffffffffffffffffffffffffffff1673ffffffffffffffffffffffffffffffffffffffff163373ffffffffffffffffffffffffffffffffffffffff161415611a8b576040517f08c379a0000000000000000000000000000000000000000000000000000000008152600401611a8290612827565b60405180910390fd5b33600260000160006101000a81548173ffffffffffffffffffffffffffffffffffffffff021916908373ffffffffffffffffffffffffffffffffffffffff1602179055506001600260030160006101000a81548160ff02191690836004811115611b1e577f4e487b7100000000000000000000000000000000000000000000000000000000600052602160045260246000fd5b02179055507f4ea1e6bdf25a6848116ceeb2e9e115fac34320126c902195ed306d6f63466de233604051611b52919061264f565b60405180910390a1565b7fca8f4d80b9a601aeb89c087307d2965aac1bb4efd751b2467c503e418ab0a28681565b611b8982610d17565b611b9a81611b95611c7e565b611c86565b611ba48383611e03565b505050565b60028060000160009054906101000a900473ffffffffffffffffffffffffffffffffffffffff16908060010160009054906101000a900473ffffffffffffffffffffffffffffffffffffffff16908060020154908060030160009054906101000a900460ff16905084565b60007f01ffc9a7000000000000000000000000000000000000000000000000000000007bffffffffffffffffffffffffffffffffffffffffffffffffffffffff1916827bffffffffffffffffffffffffffffffffffffffffffffffffffffffff1916149050919050565b600033905090565b611c9082826117e7565b611d1f57611cb58173ffffffffffffffffffffffffffffffffffffffff166014611ee4565b611cc38360001c6020611ee4565b604051602001611cd4929190612615565b6040516020818303038152906040526040517f08c379a0000000000000000000000000000000000000000000000000000000008152600401611d1691906126e5565b60405180910390fd5b5050565b611d2d82826117e7565b611dff57600160008084815260200190815260200160002060000160008373ffffffffffffffffffffffffffffffffffffffff1673ffffffffffffffffffffffffffffffffffffffff16815260200190815260200160002060006101000a81548160ff021916908315150217905550611da4611c7e565b73ffffffffffffffffffffffffffffffffffffffff168173ffffffffffffffffffffffffffffffffffffffff16837f2f8788117e7eff1d82e926ec794901d17c78024a50270940304540a733656f0d60405160405180910390a45b5050565b611e0d82826117e7565b15611ee057600080600084815260200190815260200160002060000160008373ffffffffffffffffffffffffffffffffffffffff1673ffffffffffffffffffffffffffffffffffffffff16815260200190815260200160002060006101000a81548160ff021916908315150217905550611e85611c7e565b73ffffffffffffffffffffffffffffffffffffffff168173ffffffffffffffffffffffffffffffffffffffff16837ff6391f5c32d9c69d2a47ea670b442974b53935d1edc7fd64eb21e047a839171b60405160405180910390a45b5050565b606060006002836002611ef7919061294f565b611f0191906128f9565b67ffffffffffffffff811115611f40577f4e487b7100000000000000000000000000000000000000000000000000000000600052604160045260246000fd5b6040519080825280601f01601f191660200182016040528015611f725781602001600182028036833780820191505090505b5090507f300000000000000000000000000000000000000000000000000000000000000081600081518110611fd0577f4e487b7100000000000000000000000000000000000000000000000000000000600052603260045260246000fd5b60200101907effffffffffffffffffffffffffffffffffffffffffffffffffffffffffffff1916908160001a9053507f78000000000000000000000000000000000000000000000000000000000000008160018151811061205a577f4e487b7100000000000000000000000000000000000000000000000000000000600052603260045260246000fd5b60200101907effffffffffffffffffffffffffffffffffffffffffffffffffffffffffffff1916908160001a9053506000600184600261209a919061294f565b6120a491906128f9565b90505b6001811115612190577f3031323334353637383961626364656600000000000000000000000000000000600f86166010811061210c577f4e487b7100000000000000000000000000000000000000000000000000000000600052603260045260246000fd5b1a60f81b828281518110612149577f4e487b7100000000000000000000000000000000000000000000000000000000600052603260045260246000fd5b60200101907effffffffffffffffffffffffffffffffffffffffffffffffffffffffffffff1916908160001a905350600485901c94508061218990612a91565b90506120a7565b50600084146121d4576040517f08c379a00000000000000000000000000000000000000000000000000000000081526004016121cb90612707565b60405180910390fd5b8091505092915050565b6000813590506121ed81612eb5565b92915050565b60008135905061220281612ecc565b92915050565b60008135905061221781612ee3565b92915050565b60008135905061222c81612efa565b92915050565b60006020828403121561224457600080fd5b6000612252848285016121f3565b91505092915050565b6000806040838503121561226e57600080fd5b600061227c858286016121f3565b925050602061228d858286016121de565b9150509250929050565b6000602082840312156122a957600080fd5b60006122b784828501612208565b91505092915050565b6000602082840312156122d257600080fd5b60006122e08482850161221d565b91505092915050565b6122f2816129bb565b82525050565b612301816129a9565b82525050565b612310816129cd565b82525050565b61231f816129d9565b82525050565b61232e81612a4c565b82525050565b600061233f826128c7565b61234981856128dd565b9350612359818560208601612a5e565b61236281612b19565b840191505092915050565b6000612378826128c7565b61238281856128ee565b9350612392818560208601612a5e565b80840191505092915050565b60006123ab6020836128dd565b91506123b682612b2a565b602082019050919050565b60006123ce6022836128dd565b91506123d982612b53565b604082019050919050565b60006123f1601f836128dd565b91506123fc82612ba2565b602082019050919050565b60006124146022836128dd565b915061241f82612bcb565b604082019050919050565b60006124376022836128dd565b915061244282612c1a565b604082019050919050565b600061245a6015836128dd565b915061246582612c69565b602082019050919050565b600061247d6023836128dd565b915061248882612c92565b604082019050919050565b60006124a06020836128dd565b91506124ab82612ce1565b602082019050919050565b60006124c36017836128dd565b91506124ce82612d0a565b602082019050919050565b60006124e66026836128dd565b91506124f182612d33565b604082019050919050565b6000612509601f836128dd565b915061251482612d82565b602082019050919050565b600061252c6000836128d2565b915061253782612dab565b600082019050919050565b600061254f6010836128dd565b915061255a82612dae565b602082019050919050565b60006125726017836128ee565b915061257d82612dd7565b601782019050919050565b60006125956016836128dd565b91506125a082612e00565b602082019050919050565b60006125b86011836128ee565b91506125c382612e29565b601182019050919050565b60006125db602f836128dd565b91506125e682612e52565b604082019050919050565b6125fa81612a42565b82525050565b600061260b8261251f565b9150819050919050565b600061262082612565565b915061262c828561236d565b9150612637826125ab565b9150612643828461236d565b91508190509392505050565b600060208201905061266460008301846122f8565b92915050565b600060808201905061267f60008301876122e9565b61268c60208301866122e9565b61269960408301856125f1565b6126a66060830184612325565b95945050505050565b60006020820190506126c46000830184612307565b92915050565b60006020820190506126df6000830184612316565b92915050565b600060208201905081810360008301526126ff8184612334565b905092915050565b600060208201905081810360008301526127208161239e565b9050919050565b60006020820190508181036000830152612740816123c1565b9050919050565b60006020820190508181036000830152612760816123e4565b9050919050565b6000602082019050818103600083015261278081612407565b9050919050565b600060208201905081810360008301526127a08161242a565b9050919050565b600060208201905081810360008301526127c08161244d565b9050919050565b600060208201905081810360008301526127e081612470565b9050919050565b6000602082019050818103600083015261280081612493565b9050919050565b60006020820190508181036000830152612820816124b6565b9050919050565b60006020820190508181036000830152612840816124d9565b9050919050565b60006020820190508181036000830152612860816124fc565b9050919050565b6000602082019050818103600083015261288081612542565b9050919050565b600060208201905081810360008301526128a081612588565b9050919050565b600060208201905081810360008301526128c0816125ce565b9050919050565b600081519050919050565b600081905092915050565b600082825260208201905092915050565b600081905092915050565b600061290482612a42565b915061290f83612a42565b9250827fffffffffffffffffffffffffffffffffffffffffffffffffffffffffffffffff0382111561294457612943612abb565b5b828201905092915050565b600061295a82612a42565b915061296583612a42565b9250817fffffffffffffffffffffffffffffffffffffffffffffffffffffffffffffffff048311821515161561299e5761299d612abb565b5b828202905092915050565b60006129b482612a22565b9050919050565b60006129c682612a22565b9050919050565b60008115159050919050565b6000819050919050565b60007fffffffff0000000000000000000000000000000000000000000000000000000082169050919050565b6000819050612a1d82612ea1565b919050565b600073ffffffffffffffffffffffffffffffffffffffff82169050919050565b6000819050919050565b6000612a5782612a0f565b9050919050565b60005b83811015612a7c578082015181840152602081019050612a61565b83811115612a8b576000848401525b50505050565b6000612a9c82612a42565b91506000821415612ab057612aaf612abb565b5b600182039050919050565b7f4e487b7100000000000000000000000000000000000000000000000000000000600052601160045260246000fd5b7f4e487b7100000000000000000000000000000000000000000000000000000000600052602160045260246000fd5b6000601f19601f8301169050919050565b7f537472696e67733a20686578206c656e67746820696e73756666696369656e74600082015250565b7f54686973207472616e73616374696f6e20686173206265656e2072656c65617360008201527f6564000000000000000000000000000000000000000000000000000000000000602082015250565b7f416e20696e76616c6964206f7074696f6e207761732070726f76696465642e00600082015250565b7f54686973207472616e73616374696f6e20697320616c7265616479206163746960008201527f7665000000000000000000000000000000000000000000000000000000000000602082015250565b7f54686973207472616e73616374696f6e20686173206265656e20726566756e6460008201527f6564000000000000000000000000000000000000000000000000000000000000602082015250565b7f596f7520617265206e6f74207468652062757965720000000000000000000000600082015250565b7f54686973207472616e73616374696f6e20686173206265656e2063616e63656c60008201527f6c65640000000000000000000000000000000000000000000000000000000000602082015250565b7f54686973207472616e73616374696f6e206973206e6f74207965742070616964600082015250565b7f496e76616c696420616d6f756e742070726f7669646564000000000000000000600082015250565b7f596f7520617265207468652073656c6c657220696e2074686973207472616e7360008201527f616374696f6e0000000000000000000000000000000000000000000000000000602082015250565b7f5472616e73616374696f6e20616c726561647920686173206120627579657200600082015250565b50565b7f5472616e73666572206661696c65642e00000000000000000000000000000000600082015250565b7f416363657373436f6e74726f6c3a206163636f756e7420000000000000000000600082015250565b7f596f7520617265206e6f74207468652073656c6c657200000000000000000000600082015250565b7f206973206d697373696e6720726f6c6520000000000000000000000000000000600082015250565b7f416363657373436f6e74726f6c3a2063616e206f6e6c792072656e6f756e636560008201527f20726f6c657320666f722073656c660000000000000000000000000000000000602082015250565b60058110612eb257612eb1612aea565b5b50565b612ebe816129a9565b8114612ec957600080fd5b50565b612ed5816129d9565b8114612ee057600080fd5b50565b612eec816129e3565b8114612ef757600080fd5b50565b612f0381612a42565b8114612f0e57600080fd5b5056fea26469706673582212206c0dde789178062f6a19e0d80522019416f9fc465e9ac9b39b009988330a107664736f6c63430008040033",
  "linkReferences": {},
  "deployedLinkReferences": {}
}