{
  "_format": "hh-sol-artifact-1",
  "contractName": "SmartEscrow",
  "sourceName": "contracts/SmartEscrow.sol",
  "abi": [
    {
      "inputs": [],
      "stateMutability": "nonpayable",
      "type": "constructor"
    },
    {
      "anonymous": false,
      "inputs": [
        {
          "indexed": true,
          "internalType": "bytes32",
          "name": "role",
          "type": "bytes32"
        },
        {
          "indexed": true,
          "internalType": "bytes32",
          "name": "previousAdminRole",
          "type": "bytes32"
        },
        {
          "indexed": true,
          "internalType": "bytes32",
          "name": "newAdminRole",
          "type": "bytes32"
        }
      ],
      "name": "RoleAdminChanged",
      "type": "event"
    },
    {
      "anonymous": false,
      "inputs": [
        {
          "indexed": true,
          "internalType": "bytes32",
          "name": "role",
          "type": "bytes32"
        },
        {
          "indexed": true,
          "internalType": "address",
          "name": "account",
          "type": "address"
        },
        {
          "indexed": true,
          "internalType": "address",
          "name": "sender",
          "type": "address"
        }
      ],
      "name": "RoleGranted",
      "type": "event"
    },
    {
      "anonymous": false,
      "inputs": [
        {
          "indexed": true,
          "internalType": "bytes32",
          "name": "role",
          "type": "bytes32"
        },
        {
          "indexed": true,
          "internalType": "address",
          "name": "account",
          "type": "address"
        },
        {
          "indexed": true,
          "internalType": "address",
          "name": "sender",
          "type": "address"
        }
      ],
      "name": "RoleRevoked",
      "type": "event"
    },
    {
      "anonymous": false,
      "inputs": [
        {
          "indexed": false,
          "internalType": "string",
          "name": "transaction_id",
          "type": "string"
        },
        {
          "indexed": false,
          "internalType": "address",
          "name": "escrowContract",
          "type": "address"
        },
        {
          "indexed": false,
          "internalType": "address",
          "name": "seller",
          "type": "address"
        }
      ],
      "name": "escrowTransactionCreated",
      "type": "event"
    },
    {
      "anonymous": false,
      "inputs": [
        {
          "indexed": false,
          "internalType": "string",
          "name": "transaction_id",
          "type": "string"
        },
        {
          "indexed": false,
          "internalType": "address",
          "name": "escrowContract",
          "type": "address"
        }
      ],
      "name": "escrowTransactionOveridden",
      "type": "event"
    },
    {
      "inputs": [],
      "name": "ADMIN_ROLE",
      "outputs": [
        {
          "internalType": "bytes32",
          "name": "",
          "type": "bytes32"
        }
      ],
      "stateMutability": "view",
      "type": "function"
    },
    {
      "inputs": [],
      "name": "DEFAULT_ADMIN_ROLE",
      "outputs": [
        {
          "internalType": "bytes32",
          "name": "",
          "type": "bytes32"
        }
      ],
      "stateMutability": "view",
      "type": "function"
    },
    {
      "inputs": [],
      "name": "_owner",
      "outputs": [
        {
          "internalType": "address",
          "name": "",
          "type": "address"
        }
      ],
      "stateMutability": "view",
      "type": "function"
    },
    {
      "inputs": [
        {
          "internalType": "string",
          "name": "transactionId",
          "type": "string"
        },
        {
          "internalType": "address",
          "name": "seller",
          "type": "address"
        },
        {
          "internalType": "uint256",
          "name": "amount",
          "type": "uint256"
        }
      ],
      "name": "createEscrowTransaction",
      "outputs": [],
      "stateMutability": "nonpayable",
      "type": "function"
    },
    {
      "inputs": [
        {
          "internalType": "bytes32",
          "name": "role",
          "type": "bytes32"
        }
      ],
      "name": "getRoleAdmin",
      "outputs": [
        {
          "internalType": "bytes32",
          "name": "",
          "type": "bytes32"
        }
      ],
      "stateMutability": "view",
      "type": "function"
    },
    {
      "inputs": [
        {
          "internalType": "bytes32",
          "name": "role",
          "type": "bytes32"
        },
        {
          "internalType": "address",
          "name": "account",
          "type": "address"
        }
      ],
      "name": "grantRole",
      "outputs": [],
      "stateMutability": "nonpayable",
      "type": "function"
    },
    {
      "inputs": [
        {
          "internalType": "bytes32",
          "name": "role",
          "type": "bytes32"
        },
        {
          "internalType": "address",
          "name": "account",
          "type": "address"
        }
      ],
      "name": "hasRole",
      "outputs": [
        {
          "internalType": "bool",
          "name": "",
          "type": "bool"
        }
      ],
      "stateMutability": "view",
      "type": "function"
    },
    {
      "inputs": [
        {
          "internalType": "string",
          "name": "transactionId",
          "type": "string"
        },
        {
          "internalType": "uint256",
          "name": "action",
          "type": "uint256"
        }
      ],
      "name": "overrideTransaction",
      "outputs": [],
      "stateMutability": "nonpayable",
      "type": "function"
    },
    {
      "inputs": [
        {
          "internalType": "bytes32",
          "name": "role",
          "type": "bytes32"
        },
        {
          "internalType": "address",
          "name": "account",
          "type": "address"
        }
      ],
      "name": "renounceRole",
      "outputs": [],
      "stateMutability": "nonpayable",
      "type": "function"
    },
    {
      "inputs": [
        {
          "internalType": "bytes32",
          "name": "role",
          "type": "bytes32"
        },
        {
          "internalType": "address",
          "name": "account",
          "type": "address"
        }
      ],
      "name": "revokeRole",
      "outputs": [],
      "stateMutability": "nonpayable",
      "type": "function"
    },
    {
      "inputs": [
        {
          "internalType": "bytes4",
          "name": "interfaceId",
          "type": "bytes4"
        }
      ],
      "name": "supportsInterface",
      "outputs": [
        {
          "internalType": "bool",
          "name": "",
          "type": "bool"
        }
      ],
      "stateMutability": "view",
      "type": "function"
    },
    {
      "inputs": [
        {
          "internalType": "string",
          "name": "",
          "type": "string"
        }
      ],
      "name": "transactions",
      "outputs": [
        {
          "internalType": "address",
          "name": "",
          "type": "address"
        }
      ],
      "stateMutability": "view",
      "type": "function"
    },
    {
      "inputs": [
        {
          "internalType": "address",
          "name": "",
          "type": "address"
        }
      ],
      "name": "transactions_id",
      "outputs": [
        {
          "internalType": "string",
          "name": "",
          "type": "string"
        }
      ],
      "stateMutability": "view",
      "type": "function"
    }
  ],
  "bytecode": "0x60806040523480156200001157600080fd5b5033600160006101000a81548173ffffffffffffffffffffffffffffffffffffffff021916908373ffffffffffffffffffffffffffffffffffffffff160217905550620000a77fa49807205ce4d355092ef5a8a18f56e8913cf4a201fbe287825b095693c21775600160009054906101000a900473ffffffffffffffffffffffffffffffffffffffff16620000ad60201b60201c565b62000226565b620000bf8282620000c360201b60201c565b5050565b620000d58282620001b460201b60201c565b620001b057600160008084815260200190815260200160002060000160008373ffffffffffffffffffffffffffffffffffffffff1673ffffffffffffffffffffffffffffffffffffffff16815260200190815260200160002060006101000a81548160ff021916908315150217905550620001556200021e60201b60201c565b73ffffffffffffffffffffffffffffffffffffffff168173ffffffffffffffffffffffffffffffffffffffff16837f2f8788117e7eff1d82e926ec794901d17c78024a50270940304540a733656f0d60405160405180910390a45b5050565b600080600084815260200190815260200160002060000160008373ffffffffffffffffffffffffffffffffffffffff1673ffffffffffffffffffffffffffffffffffffffff16815260200190815260200160002060009054906101000a900460ff16905092915050565b600033905090565b614dc180620002366000396000f3fe60806040523480156200001157600080fd5b5060043610620000e25760003560e01c806391d148541162000099578063d547741f116200006f578063d547741f1462000265578063e1b7f7b11462000285578063e75447e314620002a5578063ebad555f14620002db57620000e2565b806391d1485414620001eb578063a217fddf1462000221578063b2bdfa7b146200024357620000e2565b806301ffc9a714620000e7578063022236f4146200011d578063248a9ca314620001535780632f2ff15d146200018957806336568abe14620001a957806375b238fc14620001c9575b600080fd5b620001056004803603810190620000ff919062001253565b620002fb565b604051620001149190620015d8565b60405180910390f35b6200013b60048036038101906200013591906200127f565b62000378565b6040516200014a91906200158e565b60405180910390f35b6200017160048036038101906200016b9190620011e6565b620003c1565b604051620001809190620015f5565b60405180910390f35b620001a76004803603810190620001a1919062001212565b620003e0565b005b620001c76004803603810190620001c1919062001212565b62000411565b005b620001d36200049b565b604051620001e29190620015f5565b60405180910390f35b62000209600480360381019062000203919062001212565b620004bf565b604051620002189190620015d8565b60405180910390f35b6200022b62000529565b6040516200023a9190620015f5565b60405180910390f35b6200024d62000530565b6040516200025c91906200158e565b60405180910390f35b6200028360048036038101906200027d919062001212565b62000556565b005b620002a360048036038101906200029d9190620012c4565b62000587565b005b620002c36004803603810190620002bd9190620011ba565b62000772565b604051620002d2919062001612565b60405180910390f35b620002f96004803603810190620002f3919062001333565b6200081a565b005b60007f7965db0b000000000000000000000000000000000000000000000000000000007bffffffffffffffffffffffffffffffffffffffffffffffffffffffff1916827bffffffffffffffffffffffffffffffffffffffffffffffffffffffff19161480620003715750620003708262000a3a565b5b9050919050565b6002818051602081018201805184825260208301602085012081835280955050505050506000915054906101000a900473ffffffffffffffffffffffffffffffffffffffff1681565b6000806000838152602001908152602001600020600101549050919050565b620003eb82620003c1565b6200040081620003fa62000aa4565b62000aac565b6200040c838362000b54565b505050565b6200041b62000aa4565b73ffffffffffffffffffffffffffffffffffffffff168173ffffffffffffffffffffffffffffffffffffffff16146200048b576040517f08c379a0000000000000000000000000000000000000000000000000000000008152600401620004829062001714565b60405180910390fd5b62000497828262000c39565b5050565b7fa49807205ce4d355092ef5a8a18f56e8913cf4a201fbe287825b095693c2177581565b600080600084815260200190815260200160002060000160008373ffffffffffffffffffffffffffffffffffffffff1673ffffffffffffffffffffffffffffffffffffffff16815260200190815260200160002060009054906101000a900460ff16905092915050565b6000801b81565b600160009054906101000a900473ffffffffffffffffffffffffffffffffffffffff1681565b6200056182620003c1565b62000576816200057062000aa4565b62000aac565b62000582838362000c39565b505050565b82600073ffffffffffffffffffffffffffffffffffffffff16600282604051620005b2919062001533565b908152602001604051809103902060009054906101000a900473ffffffffffffffffffffffffffffffffffffffff1673ffffffffffffffffffffffffffffffffffffffff16146200063a576040517f08c379a00000000000000000000000000000000000000000000000000000000081526004016200063190620016d0565b60405180910390fd5b600083836040516200064c906200102e565b62000659929190620015ab565b604051809103906000f08015801562000676573d6000803e3d6000fd5b509050806002866040516200068c919062001533565b908152602001604051809103902060006101000a81548173ffffffffffffffffffffffffffffffffffffffff021916908373ffffffffffffffffffffffffffffffffffffffff16021790555084600360008373ffffffffffffffffffffffffffffffffffffffff1673ffffffffffffffffffffffffffffffffffffffff16815260200190815260200160002090805190602001906200072d9291906200103c565b507f1ef149b3f0cc27779bdaf870827dac73a5f148d0bf45272c7f87d1d98637162685828660405162000763939291906200166a565b60405180910390a15050505050565b6003602052806000526040600020600091509050805462000793906200198b565b80601f0160208091040260200160405190810160405280929190818152602001828054620007c1906200198b565b8015620008125780601f10620007e65761010080835404028352916020019162000812565b820191906000526020600020905b815481529060010190602001808311620007f457829003601f168201915b505050505081565b7fa49807205ce4d355092ef5a8a18f56e8913cf4a201fbe287825b095693c2177562000850816200084a62000aa4565b62000aac565b82600073ffffffffffffffffffffffffffffffffffffffff166002826040516200087b919062001533565b908152602001604051809103902060009054906101000a900473ffffffffffffffffffffffffffffffffffffffff1673ffffffffffffffffffffffffffffffffffffffff16141562000904576040517f08c379a0000000000000000000000000000000000000000000000000000000008152600401620008fb90620016f2565b60405180910390fd5b600060028560405162000918919062001533565b908152602001604051809103902060009054906101000a900473ffffffffffffffffffffffffffffffffffffffff1690508073ffffffffffffffffffffffffffffffffffffffff16630b2f13d0856040518263ffffffff1660e01b815260040162000984919062001736565b600060405180830381600087803b1580156200099f57600080fd5b505af1158015620009b4573d6000803e3d6000fd5b505050507f14ccb4602dff3ff3a575c5dd301a38802626bfe90c2331400df06ca5a3040ee085600287604051620009ec919062001533565b908152602001604051809103902060009054906101000a900473ffffffffffffffffffffffffffffffffffffffff1660405162000a2b92919062001636565b60405180910390a15050505050565b60007f01ffc9a7000000000000000000000000000000000000000000000000000000007bffffffffffffffffffffffffffffffffffffffffffffffffffffffff1916827bffffffffffffffffffffffffffffffffffffffffffffffffffffffff1916149050919050565b600033905090565b62000ab88282620004bf565b62000b505762000ae08173ffffffffffffffffffffffffffffffffffffffff16601462000d1f565b62000af08360001c602062000d1f565b60405160200162000b039291906200154c565b6040516020818303038152906040526040517f08c379a000000000000000000000000000000000000000000000000000000000815260040162000b47919062001612565b60405180910390fd5b5050565b62000b608282620004bf565b62000c3557600160008084815260200190815260200160002060000160008373ffffffffffffffffffffffffffffffffffffffff1673ffffffffffffffffffffffffffffffffffffffff16815260200190815260200160002060006101000a81548160ff02191690831515021790555062000bda62000aa4565b73ffffffffffffffffffffffffffffffffffffffff168173ffffffffffffffffffffffffffffffffffffffff16837f2f8788117e7eff1d82e926ec794901d17c78024a50270940304540a733656f0d60405160405180910390a45b5050565b62000c458282620004bf565b1562000d1b57600080600084815260200190815260200160002060000160008373ffffffffffffffffffffffffffffffffffffffff1673ffffffffffffffffffffffffffffffffffffffff16815260200190815260200160002060006101000a81548160ff02191690831515021790555062000cc062000aa4565b73ffffffffffffffffffffffffffffffffffffffff168173ffffffffffffffffffffffffffffffffffffffff16837ff6391f5c32d9c69d2a47ea670b442974b53935d1edc7fd64eb21e047a839171b60405160405180910390a45b5050565b60606000600283600262000d34919062001836565b62000d409190620017d9565b67ffffffffffffffff81111562000d80577f4e487b7100000000000000000000000000000000000000000000000000000000600052604160045260246000fd5b6040519080825280601f01601f19166020018201604052801562000db35781602001600182028036833780820191505090505b5090507f30000000000000000000000000000000000000000000000000000000000000008160008151811062000e12577f4e487b7100000000000000000000000000000000000000000000000000000000600052603260045260246000fd5b60200101907effffffffffffffffffffffffffffffffffffffffffffffffffffffffffffff1916908160001a9053507f78000000000000000000000000000000000000000000000000000000000000008160018151811062000e9d577f4e487b7100000000000000000000000000000000000000000000000000000000600052603260045260246000fd5b60200101907effffffffffffffffffffffffffffffffffffffffffffffffffffffffffffff1916908160001a9053506000600184600262000edf919062001836565b62000eeb9190620017d9565b90505b600181111562000fdd577f3031323334353637383961626364656600000000000000000000000000000000600f86166010811062000f55577f4e487b7100000000000000000000000000000000000000000000000000000000600052603260045260246000fd5b1a60f81b82828151811062000f93577f4e487b7100000000000000000000000000000000000000000000000000000000600052603260045260246000fd5b60200101907effffffffffffffffffffffffffffffffffffffffffffffffffffffffffffff1916908160001a905350600485901c94508062000fd5906200195c565b905062000eee565b506000841462001024576040517f08c379a00000000000000000000000000000000000000000000000000000000081526004016200101b90620016ae565b60405180910390fd5b8091505092915050565b6131728062001c1a83390190565b8280546200104a906200198b565b90600052602060002090601f0160209004810192826200106e5760008555620010ba565b82601f106200108957805160ff1916838001178555620010ba565b82800160010185558215620010ba579182015b82811115620010b95782518255916020019190600101906200109c565b5b509050620010c99190620010cd565b5090565b5b80821115620010e8576000816000905550600101620010ce565b5090565b600062001103620010fd846200177c565b62001753565b9050828152602081018484840111156200111c57600080fd5b6200112984828562001917565b509392505050565b600081359050620011428162001bb1565b92915050565b600081359050620011598162001bcb565b92915050565b600081359050620011708162001be5565b92915050565b600082601f8301126200118857600080fd5b81356200119a848260208601620010ec565b91505092915050565b600081359050620011b48162001bff565b92915050565b600060208284031215620011cd57600080fd5b6000620011dd8482850162001131565b91505092915050565b600060208284031215620011f957600080fd5b6000620012098482850162001148565b91505092915050565b600080604083850312156200122657600080fd5b6000620012368582860162001148565b9250506020620012498582860162001131565b9150509250929050565b6000602082840312156200126657600080fd5b600062001276848285016200115f565b91505092915050565b6000602082840312156200129257600080fd5b600082013567ffffffffffffffff811115620012ad57600080fd5b620012bb8482850162001176565b91505092915050565b600080600060608486031215620012da57600080fd5b600084013567ffffffffffffffff811115620012f557600080fd5b620013038682870162001176565b9350506020620013168682870162001131565b92505060406200132986828701620011a3565b9150509250925092565b600080604083850312156200134757600080fd5b600083013567ffffffffffffffff8111156200136257600080fd5b620013708582860162001176565b92505060206200138385828601620011a3565b9150509250929050565b620013988162001897565b82525050565b620013a981620018ab565b82525050565b620013ba81620018b7565b82525050565b6000620013cd82620017b2565b620013d98185620017bd565b9350620013eb81856020860162001926565b620013f68162001a84565b840191505092915050565b60006200140e82620017b2565b6200141a8185620017ce565b93506200142c81856020860162001926565b80840191505092915050565b600062001447602083620017bd565b9150620014548262001a95565b602082019050919050565b60006200146e601283620017bd565b91506200147b8262001abe565b602082019050919050565b600062001495601a83620017bd565b9150620014a28262001ae7565b602082019050919050565b6000620014bc601783620017ce565b9150620014c98262001b10565b601782019050919050565b6000620014e3601183620017ce565b9150620014f08262001b39565b601182019050919050565b60006200150a602f83620017bd565b9150620015178262001b62565b604082019050919050565b6200152d816200190d565b82525050565b600062001541828462001401565b915081905092915050565b60006200155982620014ad565b915062001567828562001401565b91506200157482620014d4565b915062001582828462001401565b91508190509392505050565b6000602082019050620015a560008301846200138d565b92915050565b6000604082019050620015c260008301856200138d565b620015d1602083018462001522565b9392505050565b6000602082019050620015ef60008301846200139e565b92915050565b60006020820190506200160c6000830184620013af565b92915050565b600060208201905081810360008301526200162e8184620013c0565b905092915050565b60006040820190508181036000830152620016528185620013c0565b90506200166360208301846200138d565b9392505050565b60006060820190508181036000830152620016868186620013c0565b90506200169760208301856200138d565b620016a660408301846200138d565b949350505050565b60006020820190508181036000830152620016c98162001438565b9050919050565b60006020820190508181036000830152620016eb816200145f565b9050919050565b600060208201905081810360008301526200170d8162001486565b9050919050565b600060208201905081810360008301526200172f81620014fb565b9050919050565b60006020820190506200174d600083018462001522565b92915050565b60006200175f62001772565b90506200176d8282620019c1565b919050565b6000604051905090565b600067ffffffffffffffff8211156200179a576200179962001a55565b5b620017a58262001a84565b9050602081019050919050565b600081519050919050565b600082825260208201905092915050565b600081905092915050565b6000620017e6826200190d565b9150620017f3836200190d565b9250827fffffffffffffffffffffffffffffffffffffffffffffffffffffffffffffffff038211156200182b576200182a620019f7565b5b828201905092915050565b600062001843826200190d565b915062001850836200190d565b9250817fffffffffffffffffffffffffffffffffffffffffffffffffffffffffffffffff04831182151516156200188c576200188b620019f7565b5b828202905092915050565b6000620018a482620018ed565b9050919050565b60008115159050919050565b6000819050919050565b60007fffffffff0000000000000000000000000000000000000000000000000000000082169050919050565b600073ffffffffffffffffffffffffffffffffffffffff82169050919050565b6000819050919050565b82818337600083830152505050565b60005b838110156200194657808201518184015260208101905062001929565b8381111562001956576000848401525b50505050565b600062001969826200190d565b9150600082141562001980576200197f620019f7565b5b600182039050919050565b60006002820490506001821680620019a457607f821691505b60208210811415620019bb57620019ba62001a26565b5b50919050565b620019cc8262001a84565b810181811067ffffffffffffffff82111715620019ee57620019ed62001a55565b5b80604052505050565b7f4e487b7100000000000000000000000000000000000000000000000000000000600052601160045260246000fd5b7f4e487b7100000000000000000000000000000000000000000000000000000000600052602260045260246000fd5b7f4e487b7100000000000000000000000000000000000000000000000000000000600052604160045260246000fd5b6000601f19601f8301169050919050565b7f537472696e67733a20686578206c656e67746820696e73756666696369656e74600082015250565b7f5472616e73616374696f6e206578697374730000000000000000000000000000600082015250565b7f5472616e73616374696f6e20646f6573206e6f74206578697374000000000000600082015250565b7f416363657373436f6e74726f6c3a206163636f756e7420000000000000000000600082015250565b7f206973206d697373696e6720726f6c6520000000000000000000000000000000600082015250565b7f416363657373436f6e74726f6c3a2063616e206f6e6c792072656e6f756e636560008201527f20726f6c657320666f722073656c660000000000000000000000000000000000602082015250565b62001bbc8162001897565b811462001bc857600080fd5b50565b62001bd681620018b7565b811462001be257600080fd5b50565b62001bf081620018c1565b811462001bfc57600080fd5b50565b62001c0a816200190d565b811462001c1657600080fd5b5056fe60806040523480156200001157600080fd5b5060405162003172380380620031728339818101604052810190620000379190620002c8565b81600260010160006101000a81548173ffffffffffffffffffffffffffffffffffffffff021916908373ffffffffffffffffffffffffffffffffffffffff16021790555080600280018190555033600160006101000a81548173ffffffffffffffffffffffffffffffffffffffff021916908373ffffffffffffffffffffffffffffffffffffffff160217905550620001197fca8f4d80b9a601aeb89c087307d2965aac1bb4efd751b2467c503e418ab0a286600160009054906101000a900473ffffffffffffffffffffffffffffffffffffffff166200012160201b60201c565b50506200037b565b6200013382826200013760201b60201c565b5050565b6200014982826200022860201b60201c565b6200022457600160008084815260200190815260200160002060000160008373ffffffffffffffffffffffffffffffffffffffff1673ffffffffffffffffffffffffffffffffffffffff16815260200190815260200160002060006101000a81548160ff021916908315150217905550620001c96200029260201b60201c565b73ffffffffffffffffffffffffffffffffffffffff168173ffffffffffffffffffffffffffffffffffffffff16837f2f8788117e7eff1d82e926ec794901d17c78024a50270940304540a733656f0d60405160405180910390a45b5050565b600080600084815260200190815260200160002060000160008373ffffffffffffffffffffffffffffffffffffffff1673ffffffffffffffffffffffffffffffffffffffff16815260200190815260200160002060009054906101000a900460ff16905092915050565b600033905090565b600081519050620002ab8162000347565b92915050565b600081519050620002c28162000361565b92915050565b60008060408385031215620002dc57600080fd5b6000620002ec858286016200029a565b9250506020620002ff85828601620002b1565b9150509250929050565b600062000316826200031d565b9050919050565b600073ffffffffffffffffffffffffffffffffffffffff82169050919050565b6000819050919050565b620003528162000309565b81146200035e57600080fd5b50565b6200036c816200033d565b81146200037857600080fd5b50565b612de7806200038b6000396000f3fe6080604052600436106100c25760003560e01c806386d1a69f1161007f578063b688a36311610059578063b688a36314610252578063c565a0e41461025c578063d547741f14610287578063f3d25904146102b0576100c2565b806386d1a69f146101d357806391d14854146101ea578063a217fddf14610227576100c2565b806301ffc9a7146100c75780630b2f13d014610104578063248a9ca31461012d5780632f2ff15d1461016a57806336568abe14610193578063590e1ae3146101bc575b600080fd5b3480156100d357600080fd5b506100ee60048036038101906100e99190612137565b6102de565b6040516100fb919061254f565b60405180910390f35b34801561011057600080fd5b5061012b60048036038101906101269190612160565b610358565b005b34801561013957600080fd5b50610154600480360381019061014f91906120d2565b610c0f565b604051610161919061256a565b60405180910390f35b34801561017657600080fd5b50610191600480360381019061018c91906120fb565b610c2e565b005b34801561019f57600080fd5b506101ba60048036038101906101b591906120fb565b610c57565b005b3480156101c857600080fd5b506101d1610cda565b005b3480156101df57600080fd5b506101e86111b1565b005b3480156101f657600080fd5b50610211600480360381019061020c91906120fb565b611687565b60405161021e919061254f565b60405180910390f35b34801561023357600080fd5b5061023c6116f1565b604051610249919061256a565b60405180910390f35b61025a6116f8565b005b34801561026857600080fd5b506102716119fc565b60405161027e919061256a565b60405180910390f35b34801561029357600080fd5b506102ae60048036038101906102a991906120fb565b611a20565b005b3480156102bc57600080fd5b506102c5611a49565b6040516102d5949392919061250a565b60405180910390f35b60007f7965db0b000000000000000000000000000000000000000000000000000000007bffffffffffffffffffffffffffffffffffffffffffffffffffffffff1916827bffffffffffffffffffffffffffffffffffffffffffffffffffffffff19161480610351575061035082611ab4565b5b9050919050565b7fca8f4d80b9a601aeb89c087307d2965aac1bb4efd751b2467c503e418ab0a28661038a81610385611b1e565b611b26565b600160048111156103c4577f4e487b7100000000000000000000000000000000000000000000000000000000600052602160045260246000fd5b600260030160009054906101000a900460ff16600481111561040f577f4e487b7100000000000000000000000000000000000000000000000000000000600052602160045260246000fd5b1461044f576040517f08c379a000000000000000000000000000000000000000000000000000000000815260040161044690612687565b60405180910390fd5b60036004811115610489577f4e487b7100000000000000000000000000000000000000000000000000000000600052602160045260246000fd5b600260030160009054906101000a900460ff1660048111156104d4577f4e487b7100000000000000000000000000000000000000000000000000000000600052602160045260246000fd5b1415610515576040517f08c379a000000000000000000000000000000000000000000000000000000000815260040161050c90612627565b60405180910390fd5b6002600481111561054f577f4e487b7100000000000000000000000000000000000000000000000000000000600052602160045260246000fd5b600260030160009054906101000a900460ff16600481111561059a577f4e487b7100000000000000000000000000000000000000000000000000000000600052602160045260246000fd5b14156105db576040517f08c379a00000000000000000000000000000000000000000000000000000000081526004016105d2906125c7565b60405180910390fd5b600480811115610614577f4e487b7100000000000000000000000000000000000000000000000000000000600052602160045260246000fd5b600260030160009054906101000a900460ff16600481111561065f577f4e487b7100000000000000000000000000000000000000000000000000000000600052602160045260246000fd5b14156106a0576040517f08c379a000000000000000000000000000000000000000000000000000000000815260040161069790612667565b60405180910390fd5b60008260038111156106db577f4e487b7100000000000000000000000000000000000000000000000000000000600052602160045260246000fd5b9050600047905060038081111561071b577f4e487b7100000000000000000000000000000000000000000000000000000000600052602160045260246000fd5b826003811115610754577f4e487b7100000000000000000000000000000000000000000000000000000000600052602160045260246000fd5b1415610885576000600260000160009054906101000a900473ffffffffffffffffffffffffffffffffffffffff1673ffffffffffffffffffffffffffffffffffffffff16826040516107a5906124a0565b60006040518083038185875af1925050503d80600081146107e2576040519150601f19603f3d011682016040523d82523d6000602084013e6107e7565b606091505b505090508061082b576040517f08c379a000000000000000000000000000000000000000000000000000000000815260040161082290612707565b60405180910390fd5b6004600260030160006101000a81548160ff0219169083600481111561087a577f4e487b7100000000000000000000000000000000000000000000000000000000600052602160045260246000fd5b021790555050610c09565b600260038111156108bf577f4e487b7100000000000000000000000000000000000000000000000000000000600052602160045260246000fd5b8260038111156108f8577f4e487b7100000000000000000000000000000000000000000000000000000000600052602160045260246000fd5b1415610a29576000600260000160009054906101000a900473ffffffffffffffffffffffffffffffffffffffff1673ffffffffffffffffffffffffffffffffffffffff1682604051610949906124a0565b60006040518083038185875af1925050503d8060008114610986576040519150601f19603f3d011682016040523d82523d6000602084013e61098b565b606091505b50509050806109cf576040517f08c379a00000000000000000000000000000000000000000000000000000000081526004016109c690612707565b60405180910390fd5b6003600260030160006101000a81548160ff02191690836004811115610a1e577f4e487b7100000000000000000000000000000000000000000000000000000000600052602160045260246000fd5b021790555050610c08565b60016003811115610a63577f4e487b7100000000000000000000000000000000000000000000000000000000600052602160045260246000fd5b826003811115610a9c577f4e487b7100000000000000000000000000000000000000000000000000000000600052602160045260246000fd5b1415610bcc576000600260010160009054906101000a900473ffffffffffffffffffffffffffffffffffffffff1673ffffffffffffffffffffffffffffffffffffffff1682604051610aed906124a0565b60006040518083038185875af1925050503d8060008114610b2a576040519150601f19603f3d011682016040523d82523d6000602084013e610b2f565b606091505b5050905080610b73576040517f08c379a0000000000000000000000000000000000000000000000000000000008152600401610b6a90612707565b60405180910390fd5b60028060030160006101000a81548160ff02191690836004811115610bc1577f4e487b7100000000000000000000000000000000000000000000000000000000600052602160045260246000fd5b021790555050610c07565b6040517f08c379a0000000000000000000000000000000000000000000000000000000008152600401610bfe906125e7565b60405180910390fd5b5b5b50505050565b6000806000838152602001908152602001600020600101549050919050565b610c3782610c0f565b610c4881610c43611b1e565b611b26565b610c528383611bc3565b505050565b610c5f611b1e565b73ffffffffffffffffffffffffffffffffffffffff168173ffffffffffffffffffffffffffffffffffffffff1614610ccc576040517f08c379a0000000000000000000000000000000000000000000000000000000008152600401610cc390612747565b60405180910390fd5b610cd68282611ca3565b5050565b600260010160009054906101000a900473ffffffffffffffffffffffffffffffffffffffff1673ffffffffffffffffffffffffffffffffffffffff163373ffffffffffffffffffffffffffffffffffffffff1614610d6d576040517f08c379a0000000000000000000000000000000000000000000000000000000008152600401610d6490612727565b60405180910390fd5b60016004811115610da7577f4e487b7100000000000000000000000000000000000000000000000000000000600052602160045260246000fd5b600260030160009054906101000a900460ff166004811115610df2577f4e487b7100000000000000000000000000000000000000000000000000000000600052602160045260246000fd5b14610e32576040517f08c379a0000000000000000000000000000000000000000000000000000000008152600401610e2990612687565b60405180910390fd5b60036004811115610e6c577f4e487b7100000000000000000000000000000000000000000000000000000000600052602160045260246000fd5b600260030160009054906101000a900460ff166004811115610eb7577f4e487b7100000000000000000000000000000000000000000000000000000000600052602160045260246000fd5b1415610ef8576040517f08c379a0000000000000000000000000000000000000000000000000000000008152600401610eef90612627565b60405180910390fd5b60026004811115610f32577f4e487b7100000000000000000000000000000000000000000000000000000000600052602160045260246000fd5b600260030160009054906101000a900460ff166004811115610f7d577f4e487b7100000000000000000000000000000000000000000000000000000000600052602160045260246000fd5b1415610fbe576040517f08c379a0000000000000000000000000000000000000000000000000000000008152600401610fb5906125c7565b60405180910390fd5b600480811115610ff7577f4e487b7100000000000000000000000000000000000000000000000000000000600052602160045260246000fd5b600260030160009054906101000a900460ff166004811115611042577f4e487b7100000000000000000000000000000000000000000000000000000000600052602160045260246000fd5b1415611083576040517f08c379a000000000000000000000000000000000000000000000000000000000815260040161107a90612667565b60405180910390fd5b60004790506000600260000160009054906101000a900473ffffffffffffffffffffffffffffffffffffffff1673ffffffffffffffffffffffffffffffffffffffff16826040516110d3906124a0565b60006040518083038185875af1925050503d8060008114611110576040519150601f19603f3d011682016040523d82523d6000602084013e611115565b606091505b5050905080611159576040517f08c379a000000000000000000000000000000000000000000000000000000000815260040161115090612707565b60405180910390fd5b6003600260030160006101000a81548160ff021916908360048111156111a8577f4e487b7100000000000000000000000000000000000000000000000000000000600052602160045260246000fd5b02179055505050565b600260000160009054906101000a900473ffffffffffffffffffffffffffffffffffffffff1673ffffffffffffffffffffffffffffffffffffffff163373ffffffffffffffffffffffffffffffffffffffff1614611244576040517f08c379a000000000000000000000000000000000000000000000000000000000815260040161123b90612647565b60405180910390fd5b6001600481111561127e577f4e487b7100000000000000000000000000000000000000000000000000000000600052602160045260246000fd5b600260030160009054906101000a900460ff1660048111156112c9577f4e487b7100000000000000000000000000000000000000000000000000000000600052602160045260246000fd5b14611309576040517f08c379a000000000000000000000000000000000000000000000000000000000815260040161130090612687565b60405180910390fd5b60036004811115611343577f4e487b7100000000000000000000000000000000000000000000000000000000600052602160045260246000fd5b600260030160009054906101000a900460ff16600481111561138e577f4e487b7100000000000000000000000000000000000000000000000000000000600052602160045260246000fd5b14156113cf576040517f08c379a00000000000000000000000000000000000000000000000000000000081526004016113c690612627565b60405180910390fd5b60026004811115611409577f4e487b7100000000000000000000000000000000000000000000000000000000600052602160045260246000fd5b600260030160009054906101000a900460ff166004811115611454577f4e487b7100000000000000000000000000000000000000000000000000000000600052602160045260246000fd5b1415611495576040517f08c379a000000000000000000000000000000000000000000000000000000000815260040161148c906125c7565b60405180910390fd5b6004808111156114ce577f4e487b7100000000000000000000000000000000000000000000000000000000600052602160045260246000fd5b600260030160009054906101000a900460ff166004811115611519577f4e487b7100000000000000000000000000000000000000000000000000000000600052602160045260246000fd5b141561155a576040517f08c379a000000000000000000000000000000000000000000000000000000000815260040161155190612667565b60405180910390fd5b60004790506000600260010160009054906101000a900473ffffffffffffffffffffffffffffffffffffffff1673ffffffffffffffffffffffffffffffffffffffff16826040516115aa906124a0565b60006040518083038185875af1925050503d80600081146115e7576040519150601f19603f3d011682016040523d82523d6000602084013e6115ec565b606091505b5050905080611630576040517f08c379a000000000000000000000000000000000000000000000000000000000815260040161162790612707565b60405180910390fd5b60028060030160006101000a81548160ff0219169083600481111561167e577f4e487b7100000000000000000000000000000000000000000000000000000000600052602160045260246000fd5b02179055505050565b600080600084815260200190815260200160002060000160008373ffffffffffffffffffffffffffffffffffffffff1673ffffffffffffffffffffffffffffffffffffffff16815260200190815260200160002060009054906101000a900460ff16905092915050565b6000801b81565b60006004811115611732577f4e487b7100000000000000000000000000000000000000000000000000000000600052602160045260246000fd5b600260030160009054906101000a900460ff16600481111561177d577f4e487b7100000000000000000000000000000000000000000000000000000000600052602160045260246000fd5b146117bd576040517f08c379a00000000000000000000000000000000000000000000000000000000081526004016117b490612607565b60405180910390fd5b600073ffffffffffffffffffffffffffffffffffffffff16600260000160009054906101000a900473ffffffffffffffffffffffffffffffffffffffff1673ffffffffffffffffffffffffffffffffffffffff1614611851576040517f08c379a0000000000000000000000000000000000000000000000000000000008152600401611848906126e7565b60405180910390fd5b60028001543414611897576040517f08c379a000000000000000000000000000000000000000000000000000000000815260040161188e906126a7565b60405180910390fd5b600260010160009054906101000a900473ffffffffffffffffffffffffffffffffffffffff1673ffffffffffffffffffffffffffffffffffffffff163373ffffffffffffffffffffffffffffffffffffffff16141561192b576040517f08c379a0000000000000000000000000000000000000000000000000000000008152600401611922906126c7565b60405180910390fd5b33600260000160006101000a81548173ffffffffffffffffffffffffffffffffffffffff021916908373ffffffffffffffffffffffffffffffffffffffff1602179055506001600260030160006101000a81548160ff021916908360048111156119be577f4e487b7100000000000000000000000000000000000000000000000000000000600052602160045260246000fd5b02179055507f4ea1e6bdf25a6848116ceeb2e9e115fac34320126c902195ed306d6f63466de2336040516119f291906124ef565b60405180910390a1565b7fca8f4d80b9a601aeb89c087307d2965aac1bb4efd751b2467c503e418ab0a28681565b611a2982610c0f565b611a3a81611a35611b1e565b611b26565b611a448383611ca3565b505050565b60028060000160009054906101000a900473ffffffffffffffffffffffffffffffffffffffff16908060010160009054906101000a900473ffffffffffffffffffffffffffffffffffffffff16908060020154908060030160009054906101000a900460ff16905084565b60007f01ffc9a7000000000000000000000000000000000000000000000000000000007bffffffffffffffffffffffffffffffffffffffffffffffffffffffff1916827bffffffffffffffffffffffffffffffffffffffffffffffffffffffff1916149050919050565b600033905090565b611b308282611687565b611bbf57611b558173ffffffffffffffffffffffffffffffffffffffff166014611d84565b611b638360001c6020611d84565b604051602001611b749291906124b5565b6040516020818303038152906040526040517f08c379a0000000000000000000000000000000000000000000000000000000008152600401611bb69190612585565b60405180910390fd5b5050565b611bcd8282611687565b611c9f57600160008084815260200190815260200160002060000160008373ffffffffffffffffffffffffffffffffffffffff1673ffffffffffffffffffffffffffffffffffffffff16815260200190815260200160002060006101000a81548160ff021916908315150217905550611c44611b1e565b73ffffffffffffffffffffffffffffffffffffffff168173ffffffffffffffffffffffffffffffffffffffff16837f2f8788117e7eff1d82e926ec794901d17c78024a50270940304540a733656f0d60405160405180910390a45b5050565b611cad8282611687565b15611d8057600080600084815260200190815260200160002060000160008373ffffffffffffffffffffffffffffffffffffffff1673ffffffffffffffffffffffffffffffffffffffff16815260200190815260200160002060006101000a81548160ff021916908315150217905550611d25611b1e565b73ffffffffffffffffffffffffffffffffffffffff168173ffffffffffffffffffffffffffffffffffffffff16837ff6391f5c32d9c69d2a47ea670b442974b53935d1edc7fd64eb21e047a839171b60405160405180910390a45b5050565b606060006002836002611d9791906127ef565b611da19190612799565b67ffffffffffffffff811115611de0577f4e487b7100000000000000000000000000000000000000000000000000000000600052604160045260246000fd5b6040519080825280601f01601f191660200182016040528015611e125781602001600182028036833780820191505090505b5090507f300000000000000000000000000000000000000000000000000000000000000081600081518110611e70577f4e487b7100000000000000000000000000000000000000000000000000000000600052603260045260246000fd5b60200101907effffffffffffffffffffffffffffffffffffffffffffffffffffffffffffff1916908160001a9053507f780000000000000000000000000000000000000000000000000000000000000081600181518110611efa577f4e487b7100000000000000000000000000000000000000000000000000000000600052603260045260246000fd5b60200101907effffffffffffffffffffffffffffffffffffffffffffffffffffffffffffff1916908160001a90535060006001846002611f3a91906127ef565b611f449190612799565b90505b6001811115612030577f3031323334353637383961626364656600000000000000000000000000000000600f861660108110611fac577f4e487b7100000000000000000000000000000000000000000000000000000000600052603260045260246000fd5b1a60f81b828281518110611fe9577f4e487b7100000000000000000000000000000000000000000000000000000000600052603260045260246000fd5b60200101907effffffffffffffffffffffffffffffffffffffffffffffffffffffffffffff1916908160001a905350600485901c94508061202990612931565b9050611f47565b5060008414612074576040517f08c379a000000000000000000000000000000000000000000000000000000000815260040161206b906125a7565b60405180910390fd5b8091505092915050565b60008135905061208d81612d55565b92915050565b6000813590506120a281612d6c565b92915050565b6000813590506120b781612d83565b92915050565b6000813590506120cc81612d9a565b92915050565b6000602082840312156120e457600080fd5b60006120f284828501612093565b91505092915050565b6000806040838503121561210e57600080fd5b600061211c85828601612093565b925050602061212d8582860161207e565b9150509250929050565b60006020828403121561214957600080fd5b6000612157848285016120a8565b91505092915050565b60006020828403121561217257600080fd5b6000612180848285016120bd565b91505092915050565b6121928161285b565b82525050565b6121a181612849565b82525050565b6121b08161286d565b82525050565b6121bf81612879565b82525050565b6121ce816128ec565b82525050565b60006121df82612767565b6121e9818561277d565b93506121f98185602086016128fe565b612202816129b9565b840191505092915050565b600061221882612767565b612222818561278e565b93506122328185602086016128fe565b80840191505092915050565b600061224b60208361277d565b9150612256826129ca565b602082019050919050565b600061226e60228361277d565b9150612279826129f3565b604082019050919050565b6000612291601f8361277d565b915061229c82612a42565b602082019050919050565b60006122b460228361277d565b91506122bf82612a6b565b604082019050919050565b60006122d760228361277d565b91506122e282612aba565b604082019050919050565b60006122fa60158361277d565b915061230582612b09565b602082019050919050565b600061231d60238361277d565b915061232882612b32565b604082019050919050565b600061234060208361277d565b915061234b82612b81565b602082019050919050565b600061236360178361277d565b915061236e82612baa565b602082019050919050565b600061238660268361277d565b915061239182612bd3565b604082019050919050565b60006123a9601f8361277d565b91506123b482612c22565b602082019050919050565b60006123cc600083612772565b91506123d782612c4b565b600082019050919050565b60006123ef60108361277d565b91506123fa82612c4e565b602082019050919050565b600061241260178361278e565b915061241d82612c77565b601782019050919050565b600061243560168361277d565b915061244082612ca0565b602082019050919050565b600061245860118361278e565b915061246382612cc9565b601182019050919050565b600061247b602f8361277d565b915061248682612cf2565b604082019050919050565b61249a816128e2565b82525050565b60006124ab826123bf565b9150819050919050565b60006124c082612405565b91506124cc828561220d565b91506124d78261244b565b91506124e3828461220d565b91508190509392505050565b60006020820190506125046000830184612198565b92915050565b600060808201905061251f6000830187612189565b61252c6020830186612189565b6125396040830185612491565b61254660608301846121c5565b95945050505050565b600060208201905061256460008301846121a7565b92915050565b600060208201905061257f60008301846121b6565b92915050565b6000602082019050818103600083015261259f81846121d4565b905092915050565b600060208201905081810360008301526125c08161223e565b9050919050565b600060208201905081810360008301526125e081612261565b9050919050565b6000602082019050818103600083015261260081612284565b9050919050565b60006020820190508181036000830152612620816122a7565b9050919050565b60006020820190508181036000830152612640816122ca565b9050919050565b60006020820190508181036000830152612660816122ed565b9050919050565b6000602082019050818103600083015261268081612310565b9050919050565b600060208201905081810360008301526126a081612333565b9050919050565b600060208201905081810360008301526126c081612356565b9050919050565b600060208201905081810360008301526126e081612379565b9050919050565b600060208201905081810360008301526127008161239c565b9050919050565b60006020820190508181036000830152612720816123e2565b9050919050565b6000602082019050818103600083015261274081612428565b9050919050565b600060208201905081810360008301526127608161246e565b9050919050565b600081519050919050565b600081905092915050565b600082825260208201905092915050565b600081905092915050565b60006127a4826128e2565b91506127af836128e2565b9250827fffffffffffffffffffffffffffffffffffffffffffffffffffffffffffffffff038211156127e4576127e361295b565b5b828201905092915050565b60006127fa826128e2565b9150612805836128e2565b9250817fffffffffffffffffffffffffffffffffffffffffffffffffffffffffffffffff048311821515161561283e5761283d61295b565b5b828202905092915050565b6000612854826128c2565b9050919050565b6000612866826128c2565b9050919050565b60008115159050919050565b6000819050919050565b60007fffffffff0000000000000000000000000000000000000000000000000000000082169050919050565b60008190506128bd82612d41565b919050565b600073ffffffffffffffffffffffffffffffffffffffff82169050919050565b6000819050919050565b60006128f7826128af565b9050919050565b60005b8381101561291c578082015181840152602081019050612901565b8381111561292b576000848401525b50505050565b600061293c826128e2565b915060008214156129505761294f61295b565b5b600182039050919050565b7f4e487b7100000000000000000000000000000000000000000000000000000000600052601160045260246000fd5b7f4e487b7100000000000000000000000000000000000000000000000000000000600052602160045260246000fd5b6000601f19601f8301169050919050565b7f537472696e67733a20686578206c656e67746820696e73756666696369656e74600082015250565b7f54686973207472616e73616374696f6e20686173206265656e2072656c65617360008201527f6564000000000000000000000000000000000000000000000000000000000000602082015250565b7f416e20696e76616c6964206f7074696f6e207761732070726f76696465642e00600082015250565b7f54686973207472616e73616374696f6e20697320616c7265616479206163746960008201527f7665000000000000000000000000000000000000000000000000000000000000602082015250565b7f54686973207472616e73616374696f6e20686173206265656e20726566756e6460008201527f6564000000000000000000000000000000000000000000000000000000000000602082015250565b7f596f7520617265206e6f74207468652062757965720000000000000000000000600082015250565b7f54686973207472616e73616374696f6e20686173206265656e2063616e63656c60008201527f6c65640000000000000000000000000000000000000000000000000000000000602082015250565b7f54686973207472616e73616374696f6e206973206e6f74207965742070616964600082015250565b7f496e76616c696420616d6f756e742070726f7669646564000000000000000000600082015250565b7f596f7520617265207468652073656c6c657220696e2074686973207472616e7360008201527f616374696f6e0000000000000000000000000000000000000000000000000000602082015250565b7f5472616e73616374696f6e20616c726561647920686173206120627579657200600082015250565b50565b7f5472616e73666572206661696c65642e00000000000000000000000000000000600082015250565b7f416363657373436f6e74726f6c3a206163636f756e7420000000000000000000600082015250565b7f596f7520617265206e6f74207468652073656c6c657200000000000000000000600082015250565b7f206973206d697373696e6720726f6c6520000000000000000000000000000000600082015250565b7f416363657373436f6e74726f6c3a2063616e206f6e6c792072656e6f756e636560008201527f20726f6c657320666f722073656c660000000000000000000000000000000000602082015250565b60058110612d5257612d5161298a565b5b50565b612d5e81612849565b8114612d6957600080fd5b50565b612d7581612879565b8114612d8057600080fd5b50565b612d8c81612883565b8114612d9757600080fd5b50565b612da3816128e2565b8114612dae57600080fd5b5056fea2646970667358221220cb5cb64616da87dd0a96d61382f4a5445a31e2643e425e1c8eca865f14a6a2ee64736f6c63430008040033a2646970667358221220e9fea798cc877f54c4d7ff71b061898a3dea3fb4c5aeaea53255360a9bc852c564736f6c63430008040033",
  "linkReferences": {},
  "deployedLinkReferences": {}
}