{
  "_format": "hh-sol-artifact-1",
  "contractName": "SmartEscrow",
  "sourceName": "contracts/SmartEscrow.sol",
  "abi": [
    {
      "inputs": [],
      "stateMutability": "nonpayable",
      "type": "constructor"
    },
    {
      "anonymous": false,
      "inputs": [
        {
          "indexed": true,
          "internalType": "bytes32",
          "name": "role",
          "type": "bytes32"
        },
        {
          "indexed": true,
          "internalType": "bytes32",
          "name": "previousAdminRole",
          "type": "bytes32"
        },
        {
          "indexed": true,
          "internalType": "bytes32",
          "name": "newAdminRole",
          "type": "bytes32"
        }
      ],
      "name": "RoleAdminChanged",
      "type": "event"
    },
    {
      "anonymous": false,
      "inputs": [
        {
          "indexed": true,
          "internalType": "bytes32",
          "name": "role",
          "type": "bytes32"
        },
        {
          "indexed": true,
          "internalType": "address",
          "name": "account",
          "type": "address"
        },
        {
          "indexed": true,
          "internalType": "address",
          "name": "sender",
          "type": "address"
        }
      ],
      "name": "RoleGranted",
      "type": "event"
    },
    {
      "anonymous": false,
      "inputs": [
        {
          "indexed": true,
          "internalType": "bytes32",
          "name": "role",
          "type": "bytes32"
        },
        {
          "indexed": true,
          "internalType": "address",
          "name": "account",
          "type": "address"
        },
        {
          "indexed": true,
          "internalType": "address",
          "name": "sender",
          "type": "address"
        }
      ],
      "name": "RoleRevoked",
      "type": "event"
    },
    {
      "anonymous": false,
      "inputs": [
        {
          "indexed": false,
          "internalType": "string",
          "name": "transaction_id",
          "type": "string"
        },
        {
          "indexed": false,
          "internalType": "address",
          "name": "escrowContract",
          "type": "address"
        },
        {
          "indexed": false,
          "internalType": "address",
          "name": "seller",
          "type": "address"
        }
      ],
      "name": "escrowTransactionCreated",
      "type": "event"
    },
    {
      "anonymous": false,
      "inputs": [
        {
          "indexed": false,
          "internalType": "string",
          "name": "transaction_id",
          "type": "string"
        },
        {
          "indexed": false,
          "internalType": "address",
          "name": "escrowContract",
          "type": "address"
        }
      ],
      "name": "escrowTransactionOveridden",
      "type": "event"
    },
    {
      "inputs": [],
      "name": "ADMIN_ROLE",
      "outputs": [
        {
          "internalType": "bytes32",
          "name": "",
          "type": "bytes32"
        }
      ],
      "stateMutability": "view",
      "type": "function"
    },
    {
      "inputs": [],
      "name": "DEFAULT_ADMIN_ROLE",
      "outputs": [
        {
          "internalType": "bytes32",
          "name": "",
          "type": "bytes32"
        }
      ],
      "stateMutability": "view",
      "type": "function"
    },
    {
      "inputs": [],
      "name": "_owner",
      "outputs": [
        {
          "internalType": "address",
          "name": "",
          "type": "address"
        }
      ],
      "stateMutability": "view",
      "type": "function"
    },
    {
      "inputs": [
        {
          "internalType": "string",
          "name": "transactionId",
          "type": "string"
        },
        {
          "internalType": "address",
          "name": "seller",
          "type": "address"
        },
        {
          "internalType": "uint256",
          "name": "amount",
          "type": "uint256"
        }
      ],
      "name": "createEscrowTransaction",
      "outputs": [],
      "stateMutability": "nonpayable",
      "type": "function"
    },
    {
      "inputs": [
        {
          "internalType": "bytes32",
          "name": "role",
          "type": "bytes32"
        }
      ],
      "name": "getRoleAdmin",
      "outputs": [
        {
          "internalType": "bytes32",
          "name": "",
          "type": "bytes32"
        }
      ],
      "stateMutability": "view",
      "type": "function"
    },
    {
      "inputs": [
        {
          "internalType": "bytes32",
          "name": "role",
          "type": "bytes32"
        },
        {
          "internalType": "address",
          "name": "account",
          "type": "address"
        }
      ],
      "name": "grantRole",
      "outputs": [],
      "stateMutability": "nonpayable",
      "type": "function"
    },
    {
      "inputs": [
        {
          "internalType": "bytes32",
          "name": "role",
          "type": "bytes32"
        },
        {
          "internalType": "address",
          "name": "account",
          "type": "address"
        }
      ],
      "name": "hasRole",
      "outputs": [
        {
          "internalType": "bool",
          "name": "",
          "type": "bool"
        }
      ],
      "stateMutability": "view",
      "type": "function"
    },
    {
      "inputs": [
        {
          "internalType": "string",
          "name": "transactionId",
          "type": "string"
        },
        {
          "internalType": "uint256",
          "name": "action",
          "type": "uint256"
        }
      ],
      "name": "overrideTransaction",
      "outputs": [],
      "stateMutability": "nonpayable",
      "type": "function"
    },
    {
      "inputs": [
        {
          "internalType": "bytes32",
          "name": "role",
          "type": "bytes32"
        },
        {
          "internalType": "address",
          "name": "account",
          "type": "address"
        }
      ],
      "name": "renounceRole",
      "outputs": [],
      "stateMutability": "nonpayable",
      "type": "function"
    },
    {
      "inputs": [
        {
          "internalType": "bytes32",
          "name": "role",
          "type": "bytes32"
        },
        {
          "internalType": "address",
          "name": "account",
          "type": "address"
        }
      ],
      "name": "revokeRole",
      "outputs": [],
      "stateMutability": "nonpayable",
      "type": "function"
    },
    {
      "inputs": [
        {
          "internalType": "bytes4",
          "name": "interfaceId",
          "type": "bytes4"
        }
      ],
      "name": "supportsInterface",
      "outputs": [
        {
          "internalType": "bool",
          "name": "",
          "type": "bool"
        }
      ],
      "stateMutability": "view",
      "type": "function"
    },
    {
      "inputs": [
        {
          "internalType": "string",
          "name": "",
          "type": "string"
        }
      ],
      "name": "transactions",
      "outputs": [
        {
          "internalType": "address",
          "name": "",
          "type": "address"
        }
      ],
      "stateMutability": "view",
      "type": "function"
    },
    {
      "inputs": [
        {
          "internalType": "address",
          "name": "",
          "type": "address"
        }
      ],
      "name": "transactions_id",
      "outputs": [
        {
          "internalType": "string",
          "name": "",
          "type": "string"
        }
      ],
      "stateMutability": "view",
      "type": "function"
    }
  ],
  "bytecode": "0x60806040523480156200001157600080fd5b5033600160006101000a81548173ffffffffffffffffffffffffffffffffffffffff021916908373ffffffffffffffffffffffffffffffffffffffff160217905550620000a77fa49807205ce4d355092ef5a8a18f56e8913cf4a201fbe287825b095693c21775600160009054906101000a900473ffffffffffffffffffffffffffffffffffffffff16620000ad60201b60201c565b62000226565b620000bf8282620000c360201b60201c565b5050565b620000d58282620001b460201b60201c565b620001b057600160008084815260200190815260200160002060000160008373ffffffffffffffffffffffffffffffffffffffff1673ffffffffffffffffffffffffffffffffffffffff16815260200190815260200160002060006101000a81548160ff021916908315150217905550620001556200021e60201b60201c565b73ffffffffffffffffffffffffffffffffffffffff168173ffffffffffffffffffffffffffffffffffffffff16837f2f8788117e7eff1d82e926ec794901d17c78024a50270940304540a733656f0d60405160405180910390a45b5050565b600080600084815260200190815260200160002060000160008373ffffffffffffffffffffffffffffffffffffffff1673ffffffffffffffffffffffffffffffffffffffff16815260200190815260200160002060009054906101000a900460ff16905092915050565b600033905090565b614ff680620002366000396000f3fe60806040523480156200001157600080fd5b5060043610620000e25760003560e01c806391d148541162000099578063d547741f116200006f578063d547741f1462000265578063e1b7f7b11462000285578063e75447e314620002a5578063ebad555f14620002db57620000e2565b806391d1485414620001eb578063a217fddf1462000221578063b2bdfa7b146200024357620000e2565b806301ffc9a714620000e7578063022236f4146200011d578063248a9ca314620001535780632f2ff15d146200018957806336568abe14620001a957806375b238fc14620001c9575b600080fd5b620001056004803603810190620000ff919062001253565b620002fb565b604051620001149190620015d8565b60405180910390f35b6200013b60048036038101906200013591906200127f565b62000378565b6040516200014a91906200158e565b60405180910390f35b6200017160048036038101906200016b9190620011e6565b620003c1565b604051620001809190620015f5565b60405180910390f35b620001a76004803603810190620001a1919062001212565b620003e0565b005b620001c76004803603810190620001c1919062001212565b62000411565b005b620001d36200049b565b604051620001e29190620015f5565b60405180910390f35b62000209600480360381019062000203919062001212565b620004bf565b604051620002189190620015d8565b60405180910390f35b6200022b62000529565b6040516200023a9190620015f5565b60405180910390f35b6200024d62000530565b6040516200025c91906200158e565b60405180910390f35b6200028360048036038101906200027d919062001212565b62000556565b005b620002a360048036038101906200029d9190620012c4565b62000587565b005b620002c36004803603810190620002bd9190620011ba565b62000772565b604051620002d2919062001612565b60405180910390f35b620002f96004803603810190620002f3919062001333565b6200081a565b005b60007f7965db0b000000000000000000000000000000000000000000000000000000007bffffffffffffffffffffffffffffffffffffffffffffffffffffffff1916827bffffffffffffffffffffffffffffffffffffffffffffffffffffffff19161480620003715750620003708262000a3a565b5b9050919050565b6002818051602081018201805184825260208301602085012081835280955050505050506000915054906101000a900473ffffffffffffffffffffffffffffffffffffffff1681565b6000806000838152602001908152602001600020600101549050919050565b620003eb82620003c1565b6200040081620003fa62000aa4565b62000aac565b6200040c838362000b54565b505050565b6200041b62000aa4565b73ffffffffffffffffffffffffffffffffffffffff168173ffffffffffffffffffffffffffffffffffffffff16146200048b576040517f08c379a0000000000000000000000000000000000000000000000000000000008152600401620004829062001714565b60405180910390fd5b62000497828262000c39565b5050565b7fa49807205ce4d355092ef5a8a18f56e8913cf4a201fbe287825b095693c2177581565b600080600084815260200190815260200160002060000160008373ffffffffffffffffffffffffffffffffffffffff1673ffffffffffffffffffffffffffffffffffffffff16815260200190815260200160002060009054906101000a900460ff16905092915050565b6000801b81565b600160009054906101000a900473ffffffffffffffffffffffffffffffffffffffff1681565b6200056182620003c1565b62000576816200057062000aa4565b62000aac565b62000582838362000c39565b505050565b82600073ffffffffffffffffffffffffffffffffffffffff16600282604051620005b2919062001533565b908152602001604051809103902060009054906101000a900473ffffffffffffffffffffffffffffffffffffffff1673ffffffffffffffffffffffffffffffffffffffff16146200063a576040517f08c379a00000000000000000000000000000000000000000000000000000000081526004016200063190620016d0565b60405180910390fd5b600083836040516200064c906200102e565b62000659929190620015ab565b604051809103906000f08015801562000676573d6000803e3d6000fd5b509050806002866040516200068c919062001533565b908152602001604051809103902060006101000a81548173ffffffffffffffffffffffffffffffffffffffff021916908373ffffffffffffffffffffffffffffffffffffffff16021790555084600360008373ffffffffffffffffffffffffffffffffffffffff1673ffffffffffffffffffffffffffffffffffffffff16815260200190815260200160002090805190602001906200072d9291906200103c565b507f1ef149b3f0cc27779bdaf870827dac73a5f148d0bf45272c7f87d1d98637162685828660405162000763939291906200166a565b60405180910390a15050505050565b6003602052806000526040600020600091509050805462000793906200198b565b80601f0160208091040260200160405190810160405280929190818152602001828054620007c1906200198b565b8015620008125780601f10620007e65761010080835404028352916020019162000812565b820191906000526020600020905b815481529060010190602001808311620007f457829003601f168201915b505050505081565b7fa49807205ce4d355092ef5a8a18f56e8913cf4a201fbe287825b095693c2177562000850816200084a62000aa4565b62000aac565b82600073ffffffffffffffffffffffffffffffffffffffff166002826040516200087b919062001533565b908152602001604051809103902060009054906101000a900473ffffffffffffffffffffffffffffffffffffffff1673ffffffffffffffffffffffffffffffffffffffff16141562000904576040517f08c379a0000000000000000000000000000000000000000000000000000000008152600401620008fb90620016f2565b60405180910390fd5b600060028560405162000918919062001533565b908152602001604051809103902060009054906101000a900473ffffffffffffffffffffffffffffffffffffffff1690508073ffffffffffffffffffffffffffffffffffffffff16630b2f13d0856040518263ffffffff1660e01b815260040162000984919062001736565b600060405180830381600087803b1580156200099f57600080fd5b505af1158015620009b4573d6000803e3d6000fd5b505050507f14ccb4602dff3ff3a575c5dd301a38802626bfe90c2331400df06ca5a3040ee085600287604051620009ec919062001533565b908152602001604051809103902060009054906101000a900473ffffffffffffffffffffffffffffffffffffffff1660405162000a2b92919062001636565b60405180910390a15050505050565b60007f01ffc9a7000000000000000000000000000000000000000000000000000000007bffffffffffffffffffffffffffffffffffffffffffffffffffffffff1916827bffffffffffffffffffffffffffffffffffffffffffffffffffffffff1916149050919050565b600033905090565b62000ab88282620004bf565b62000b505762000ae08173ffffffffffffffffffffffffffffffffffffffff16601462000d1f565b62000af08360001c602062000d1f565b60405160200162000b039291906200154c565b6040516020818303038152906040526040517f08c379a000000000000000000000000000000000000000000000000000000000815260040162000b47919062001612565b60405180910390fd5b5050565b62000b608282620004bf565b62000c3557600160008084815260200190815260200160002060000160008373ffffffffffffffffffffffffffffffffffffffff1673ffffffffffffffffffffffffffffffffffffffff16815260200190815260200160002060006101000a81548160ff02191690831515021790555062000bda62000aa4565b73ffffffffffffffffffffffffffffffffffffffff168173ffffffffffffffffffffffffffffffffffffffff16837f2f8788117e7eff1d82e926ec794901d17c78024a50270940304540a733656f0d60405160405180910390a45b5050565b62000c458282620004bf565b1562000d1b57600080600084815260200190815260200160002060000160008373ffffffffffffffffffffffffffffffffffffffff1673ffffffffffffffffffffffffffffffffffffffff16815260200190815260200160002060006101000a81548160ff02191690831515021790555062000cc062000aa4565b73ffffffffffffffffffffffffffffffffffffffff168173ffffffffffffffffffffffffffffffffffffffff16837ff6391f5c32d9c69d2a47ea670b442974b53935d1edc7fd64eb21e047a839171b60405160405180910390a45b5050565b60606000600283600262000d34919062001836565b62000d409190620017d9565b67ffffffffffffffff81111562000d80577f4e487b7100000000000000000000000000000000000000000000000000000000600052604160045260246000fd5b6040519080825280601f01601f19166020018201604052801562000db35781602001600182028036833780820191505090505b5090507f30000000000000000000000000000000000000000000000000000000000000008160008151811062000e12577f4e487b7100000000000000000000000000000000000000000000000000000000600052603260045260246000fd5b60200101907effffffffffffffffffffffffffffffffffffffffffffffffffffffffffffff1916908160001a9053507f78000000000000000000000000000000000000000000000000000000000000008160018151811062000e9d577f4e487b7100000000000000000000000000000000000000000000000000000000600052603260045260246000fd5b60200101907effffffffffffffffffffffffffffffffffffffffffffffffffffffffffffff1916908160001a9053506000600184600262000edf919062001836565b62000eeb9190620017d9565b90505b600181111562000fdd577f3031323334353637383961626364656600000000000000000000000000000000600f86166010811062000f55577f4e487b7100000000000000000000000000000000000000000000000000000000600052603260045260246000fd5b1a60f81b82828151811062000f93577f4e487b7100000000000000000000000000000000000000000000000000000000600052603260045260246000fd5b60200101907effffffffffffffffffffffffffffffffffffffffffffffffffffffffffffff1916908160001a905350600485901c94508062000fd5906200195c565b905062000eee565b506000841462001024576040517f08c379a00000000000000000000000000000000000000000000000000000000081526004016200101b90620016ae565b60405180910390fd5b8091505092915050565b6133a78062001c1a83390190565b8280546200104a906200198b565b90600052602060002090601f0160209004810192826200106e5760008555620010ba565b82601f106200108957805160ff1916838001178555620010ba565b82800160010185558215620010ba579182015b82811115620010b95782518255916020019190600101906200109c565b5b509050620010c99190620010cd565b5090565b5b80821115620010e8576000816000905550600101620010ce565b5090565b600062001103620010fd846200177c565b62001753565b9050828152602081018484840111156200111c57600080fd5b6200112984828562001917565b509392505050565b600081359050620011428162001bb1565b92915050565b600081359050620011598162001bcb565b92915050565b600081359050620011708162001be5565b92915050565b600082601f8301126200118857600080fd5b81356200119a848260208601620010ec565b91505092915050565b600081359050620011b48162001bff565b92915050565b600060208284031215620011cd57600080fd5b6000620011dd8482850162001131565b91505092915050565b600060208284031215620011f957600080fd5b6000620012098482850162001148565b91505092915050565b600080604083850312156200122657600080fd5b6000620012368582860162001148565b9250506020620012498582860162001131565b9150509250929050565b6000602082840312156200126657600080fd5b600062001276848285016200115f565b91505092915050565b6000602082840312156200129257600080fd5b600082013567ffffffffffffffff811115620012ad57600080fd5b620012bb8482850162001176565b91505092915050565b600080600060608486031215620012da57600080fd5b600084013567ffffffffffffffff811115620012f557600080fd5b620013038682870162001176565b9350506020620013168682870162001131565b92505060406200132986828701620011a3565b9150509250925092565b600080604083850312156200134757600080fd5b600083013567ffffffffffffffff8111156200136257600080fd5b620013708582860162001176565b92505060206200138385828601620011a3565b9150509250929050565b620013988162001897565b82525050565b620013a981620018ab565b82525050565b620013ba81620018b7565b82525050565b6000620013cd82620017b2565b620013d98185620017bd565b9350620013eb81856020860162001926565b620013f68162001a84565b840191505092915050565b60006200140e82620017b2565b6200141a8185620017ce565b93506200142c81856020860162001926565b80840191505092915050565b600062001447602083620017bd565b9150620014548262001a95565b602082019050919050565b60006200146e601283620017bd565b91506200147b8262001abe565b602082019050919050565b600062001495601a83620017bd565b9150620014a28262001ae7565b602082019050919050565b6000620014bc601783620017ce565b9150620014c98262001b10565b601782019050919050565b6000620014e3601183620017ce565b9150620014f08262001b39565b601182019050919050565b60006200150a602f83620017bd565b9150620015178262001b62565b604082019050919050565b6200152d816200190d565b82525050565b600062001541828462001401565b915081905092915050565b60006200155982620014ad565b915062001567828562001401565b91506200157482620014d4565b915062001582828462001401565b91508190509392505050565b6000602082019050620015a560008301846200138d565b92915050565b6000604082019050620015c260008301856200138d565b620015d1602083018462001522565b9392505050565b6000602082019050620015ef60008301846200139e565b92915050565b60006020820190506200160c6000830184620013af565b92915050565b600060208201905081810360008301526200162e8184620013c0565b905092915050565b60006040820190508181036000830152620016528185620013c0565b90506200166360208301846200138d565b9392505050565b60006060820190508181036000830152620016868186620013c0565b90506200169760208301856200138d565b620016a660408301846200138d565b949350505050565b60006020820190508181036000830152620016c98162001438565b9050919050565b60006020820190508181036000830152620016eb816200145f565b9050919050565b600060208201905081810360008301526200170d8162001486565b9050919050565b600060208201905081810360008301526200172f81620014fb565b9050919050565b60006020820190506200174d600083018462001522565b92915050565b60006200175f62001772565b90506200176d8282620019c1565b919050565b6000604051905090565b600067ffffffffffffffff8211156200179a576200179962001a55565b5b620017a58262001a84565b9050602081019050919050565b600081519050919050565b600082825260208201905092915050565b600081905092915050565b6000620017e6826200190d565b9150620017f3836200190d565b9250827fffffffffffffffffffffffffffffffffffffffffffffffffffffffffffffffff038211156200182b576200182a620019f7565b5b828201905092915050565b600062001843826200190d565b915062001850836200190d565b9250817fffffffffffffffffffffffffffffffffffffffffffffffffffffffffffffffff04831182151516156200188c576200188b620019f7565b5b828202905092915050565b6000620018a482620018ed565b9050919050565b60008115159050919050565b6000819050919050565b60007fffffffff0000000000000000000000000000000000000000000000000000000082169050919050565b600073ffffffffffffffffffffffffffffffffffffffff82169050919050565b6000819050919050565b82818337600083830152505050565b60005b838110156200194657808201518184015260208101905062001929565b8381111562001956576000848401525b50505050565b600062001969826200190d565b9150600082141562001980576200197f620019f7565b5b600182039050919050565b60006002820490506001821680620019a457607f821691505b60208210811415620019bb57620019ba62001a26565b5b50919050565b620019cc8262001a84565b810181811067ffffffffffffffff82111715620019ee57620019ed62001a55565b5b80604052505050565b7f4e487b7100000000000000000000000000000000000000000000000000000000600052601160045260246000fd5b7f4e487b7100000000000000000000000000000000000000000000000000000000600052602260045260246000fd5b7f4e487b7100000000000000000000000000000000000000000000000000000000600052604160045260246000fd5b6000601f19601f8301169050919050565b7f537472696e67733a20686578206c656e67746820696e73756666696369656e74600082015250565b7f5472616e73616374696f6e206578697374730000000000000000000000000000600082015250565b7f5472616e73616374696f6e20646f6573206e6f74206578697374000000000000600082015250565b7f416363657373436f6e74726f6c3a206163636f756e7420000000000000000000600082015250565b7f206973206d697373696e6720726f6c6520000000000000000000000000000000600082015250565b7f416363657373436f6e74726f6c3a2063616e206f6e6c792072656e6f756e636560008201527f20726f6c657320666f722073656c660000000000000000000000000000000000602082015250565b62001bbc8162001897565b811462001bc857600080fd5b50565b62001bd681620018b7565b811462001be257600080fd5b50565b62001bf081620018c1565b811462001bfc57600080fd5b50565b62001c0a816200190d565b811462001c1657600080fd5b5056fe60806040523480156200001157600080fd5b50604051620033a7380380620033a78339818101604052810190620000379190620002c8565b81600260010160006101000a81548173ffffffffffffffffffffffffffffffffffffffff021916908373ffffffffffffffffffffffffffffffffffffffff16021790555080600280018190555033600160006101000a81548173ffffffffffffffffffffffffffffffffffffffff021916908373ffffffffffffffffffffffffffffffffffffffff160217905550620001197fca8f4d80b9a601aeb89c087307d2965aac1bb4efd751b2467c503e418ab0a286600160009054906101000a900473ffffffffffffffffffffffffffffffffffffffff166200012160201b60201c565b50506200037b565b6200013382826200013760201b60201c565b5050565b6200014982826200022860201b60201c565b6200022457600160008084815260200190815260200160002060000160008373ffffffffffffffffffffffffffffffffffffffff1673ffffffffffffffffffffffffffffffffffffffff16815260200190815260200160002060006101000a81548160ff021916908315150217905550620001c96200029260201b60201c565b73ffffffffffffffffffffffffffffffffffffffff168173ffffffffffffffffffffffffffffffffffffffff16837f2f8788117e7eff1d82e926ec794901d17c78024a50270940304540a733656f0d60405160405180910390a45b5050565b600080600084815260200190815260200160002060000160008373ffffffffffffffffffffffffffffffffffffffff1673ffffffffffffffffffffffffffffffffffffffff16815260200190815260200160002060009054906101000a900460ff16905092915050565b600033905090565b600081519050620002ab8162000347565b92915050565b600081519050620002c28162000361565b92915050565b60008060408385031215620002dc57600080fd5b6000620002ec858286016200029a565b9250506020620002ff85828601620002b1565b9150509250929050565b600062000316826200031d565b9050919050565b600073ffffffffffffffffffffffffffffffffffffffff82169050919050565b6000819050919050565b620003528162000309565b81146200035e57600080fd5b50565b6200036c816200033d565b81146200037857600080fd5b50565b61301c806200038b6000396000f3fe6080604052600436106100c25760003560e01c806386d1a69f1161007f578063b688a36311610059578063b688a36314610252578063c565a0e41461025c578063d547741f14610287578063f3d25904146102b0576100c2565b806386d1a69f146101d357806391d14854146101ea578063a217fddf14610227576100c2565b806301ffc9a7146100c75780630b2f13d014610104578063248a9ca31461012d5780632f2ff15d1461016a57806336568abe14610193578063590e1ae3146101bc575b600080fd5b3480156100d357600080fd5b506100ee60048036038101906100e991906122da565b6102de565b6040516100fb9190612715565b60405180910390f35b34801561011057600080fd5b5061012b60048036038101906101269190612303565b610358565b005b34801561013957600080fd5b50610154600480360381019061014f9190612275565b610d17565b6040516101619190612730565b60405180910390f35b34801561017657600080fd5b50610191600480360381019061018c919061229e565b610d36565b005b34801561019f57600080fd5b506101ba60048036038101906101b5919061229e565b610d5f565b005b3480156101c857600080fd5b506101d1610de2565b005b3480156101df57600080fd5b506101e86112e5565b005b3480156101f657600080fd5b50610211600480360381019061020c919061229e565b6117e7565b60405161021e9190612715565b60405180910390f35b34801561023357600080fd5b5061023c611851565b6040516102499190612730565b60405180910390f35b61025a611858565b005b34801561026857600080fd5b50610271611b9f565b60405161027e9190612730565b60405180910390f35b34801561029357600080fd5b506102ae60048036038101906102a9919061229e565b611bc3565b005b3480156102bc57600080fd5b506102c5611bec565b6040516102d594939291906126d0565b60405180910390f35b60007f7965db0b000000000000000000000000000000000000000000000000000000007bffffffffffffffffffffffffffffffffffffffffffffffffffffffff1916827bffffffffffffffffffffffffffffffffffffffffffffffffffffffff19161480610351575061035082611c57565b5b9050919050565b7fca8f4d80b9a601aeb89c087307d2965aac1bb4efd751b2467c503e418ab0a28661038a81610385611cc1565b611cc9565b600160048111156103c4577f4e487b7100000000000000000000000000000000000000000000000000000000600052602160045260246000fd5b600260030160009054906101000a900460ff16600481111561040f577f4e487b7100000000000000000000000000000000000000000000000000000000600052602160045260246000fd5b1461044f576040517f08c379a00000000000000000000000000000000000000000000000000000000081526004016104469061286d565b60405180910390fd5b60036004811115610489577f4e487b7100000000000000000000000000000000000000000000000000000000600052602160045260246000fd5b600260030160009054906101000a900460ff1660048111156104d4577f4e487b7100000000000000000000000000000000000000000000000000000000600052602160045260246000fd5b1415610515576040517f08c379a000000000000000000000000000000000000000000000000000000000815260040161050c9061280d565b60405180910390fd5b6002600481111561054f577f4e487b7100000000000000000000000000000000000000000000000000000000600052602160045260246000fd5b600260030160009054906101000a900460ff16600481111561059a577f4e487b7100000000000000000000000000000000000000000000000000000000600052602160045260246000fd5b14156105db576040517f08c379a00000000000000000000000000000000000000000000000000000000081526004016105d29061278d565b60405180910390fd5b600480811115610614577f4e487b7100000000000000000000000000000000000000000000000000000000600052602160045260246000fd5b600260030160009054906101000a900460ff16600481111561065f577f4e487b7100000000000000000000000000000000000000000000000000000000600052602160045260246000fd5b14156106a0576040517f08c379a00000000000000000000000000000000000000000000000000000000081526004016106979061284d565b60405180910390fd5b60008260038111156106db577f4e487b7100000000000000000000000000000000000000000000000000000000600052602160045260246000fd5b9050600047905060038081111561071b577f4e487b7100000000000000000000000000000000000000000000000000000000600052602160045260246000fd5b826003811115610754577f4e487b7100000000000000000000000000000000000000000000000000000000600052602160045260246000fd5b14156108dd576000600260000160009054906101000a900473ffffffffffffffffffffffffffffffffffffffff1673ffffffffffffffffffffffffffffffffffffffff16826040516107a590612666565b60006040518083038185875af1925050503d80600081146107e2576040519150601f19603f3d011682016040523d82523d6000602084013e6107e7565b606091505b505090508061082b576040517f08c379a0000000000000000000000000000000000000000000000000000000008152600401610822906128ed565b60405180910390fd5b6004600260030160006101000a81548160ff0219169083600481111561087a577f4e487b7100000000000000000000000000000000000000000000000000000000600052602160045260246000fd5b02179055507ffd810080a5a034a8b991d08e8f631faa8cd682225f7800ee4c0c22cc6d9c75dc60405160405180910390a17f966ec6091e1be18ca42bd33bf7e8c91b6f7f9e63b4505d736f12daf434dd0c3e60405160405180910390a150610d11565b60026003811115610917577f4e487b7100000000000000000000000000000000000000000000000000000000600052602160045260246000fd5b826003811115610950577f4e487b7100000000000000000000000000000000000000000000000000000000600052602160045260246000fd5b1415610ad9576000600260000160009054906101000a900473ffffffffffffffffffffffffffffffffffffffff1673ffffffffffffffffffffffffffffffffffffffff16826040516109a190612666565b60006040518083038185875af1925050503d80600081146109de576040519150601f19603f3d011682016040523d82523d6000602084013e6109e3565b606091505b5050905080610a27576040517f08c379a0000000000000000000000000000000000000000000000000000000008152600401610a1e906128ed565b60405180910390fd5b6003600260030160006101000a81548160ff02191690836004811115610a76577f4e487b7100000000000000000000000000000000000000000000000000000000600052602160045260246000fd5b02179055507ffd810080a5a034a8b991d08e8f631faa8cd682225f7800ee4c0c22cc6d9c75dc60405160405180910390a17fa7118f61710911efdd7217a437bf1e08cd90e0386e03d6d4cbe1498f799d6f1260405160405180910390a150610d10565b60016003811115610b13577f4e487b7100000000000000000000000000000000000000000000000000000000600052602160045260246000fd5b826003811115610b4c577f4e487b7100000000000000000000000000000000000000000000000000000000600052602160045260246000fd5b1415610cd4576000600260010160009054906101000a900473ffffffffffffffffffffffffffffffffffffffff1673ffffffffffffffffffffffffffffffffffffffff1682604051610b9d90612666565b60006040518083038185875af1925050503d8060008114610bda576040519150601f19603f3d011682016040523d82523d6000602084013e610bdf565b606091505b5050905080610c23576040517f08c379a0000000000000000000000000000000000000000000000000000000008152600401610c1a906128ed565b60405180910390fd5b60028060030160006101000a81548160ff02191690836004811115610c71577f4e487b7100000000000000000000000000000000000000000000000000000000600052602160045260246000fd5b02179055507ffd810080a5a034a8b991d08e8f631faa8cd682225f7800ee4c0c22cc6d9c75dc60405160405180910390a17f966ec6091e1be18ca42bd33bf7e8c91b6f7f9e63b4505d736f12daf434dd0c3e60405160405180910390a150610d0f565b6040517f08c379a0000000000000000000000000000000000000000000000000000000008152600401610d06906127ad565b60405180910390fd5b5b5b50505050565b6000806000838152602001908152602001600020600101549050919050565b610d3f82610d17565b610d5081610d4b611cc1565b611cc9565b610d5a8383611d66565b505050565b610d67611cc1565b73ffffffffffffffffffffffffffffffffffffffff168173ffffffffffffffffffffffffffffffffffffffff1614610dd4576040517f08c379a0000000000000000000000000000000000000000000000000000000008152600401610dcb9061292d565b60405180910390fd5b610dde8282611e46565b5050565b600260010160009054906101000a900473ffffffffffffffffffffffffffffffffffffffff1673ffffffffffffffffffffffffffffffffffffffff163373ffffffffffffffffffffffffffffffffffffffff1614610e75576040517f08c379a0000000000000000000000000000000000000000000000000000000008152600401610e6c9061290d565b60405180910390fd5b60016004811115610eaf577f4e487b7100000000000000000000000000000000000000000000000000000000600052602160045260246000fd5b600260030160009054906101000a900460ff166004811115610efa577f4e487b7100000000000000000000000000000000000000000000000000000000600052602160045260246000fd5b14610f3a576040517f08c379a0000000000000000000000000000000000000000000000000000000008152600401610f319061286d565b60405180910390fd5b60036004811115610f74577f4e487b7100000000000000000000000000000000000000000000000000000000600052602160045260246000fd5b600260030160009054906101000a900460ff166004811115610fbf577f4e487b7100000000000000000000000000000000000000000000000000000000600052602160045260246000fd5b1415611000576040517f08c379a0000000000000000000000000000000000000000000000000000000008152600401610ff79061280d565b60405180910390fd5b6002600481111561103a577f4e487b7100000000000000000000000000000000000000000000000000000000600052602160045260246000fd5b600260030160009054906101000a900460ff166004811115611085577f4e487b7100000000000000000000000000000000000000000000000000000000600052602160045260246000fd5b14156110c6576040517f08c379a00000000000000000000000000000000000000000000000000000000081526004016110bd9061278d565b60405180910390fd5b6004808111156110ff577f4e487b7100000000000000000000000000000000000000000000000000000000600052602160045260246000fd5b600260030160009054906101000a900460ff16600481111561114a577f4e487b7100000000000000000000000000000000000000000000000000000000600052602160045260246000fd5b141561118b576040517f08c379a00000000000000000000000000000000000000000000000000000000081526004016111829061284d565b60405180910390fd5b60004790506000600260000160009054906101000a900473ffffffffffffffffffffffffffffffffffffffff1673ffffffffffffffffffffffffffffffffffffffff16826040516111db90612666565b60006040518083038185875af1925050503d8060008114611218576040519150601f19603f3d011682016040523d82523d6000602084013e61121d565b606091505b5050905080611261576040517f08c379a0000000000000000000000000000000000000000000000000000000008152600401611258906128ed565b60405180910390fd5b6003600260030160006101000a81548160ff021916908360048111156112b0577f4e487b7100000000000000000000000000000000000000000000000000000000600052602160045260246000fd5b02179055507fa7118f61710911efdd7217a437bf1e08cd90e0386e03d6d4cbe1498f799d6f1260405160405180910390a15050565b600260000160009054906101000a900473ffffffffffffffffffffffffffffffffffffffff1673ffffffffffffffffffffffffffffffffffffffff163373ffffffffffffffffffffffffffffffffffffffff1614611378576040517f08c379a000000000000000000000000000000000000000000000000000000000815260040161136f9061282d565b60405180910390fd5b600160048111156113b2577f4e487b7100000000000000000000000000000000000000000000000000000000600052602160045260246000fd5b600260030160009054906101000a900460ff1660048111156113fd577f4e487b7100000000000000000000000000000000000000000000000000000000600052602160045260246000fd5b1461143d576040517f08c379a00000000000000000000000000000000000000000000000000000000081526004016114349061286d565b60405180910390fd5b60036004811115611477577f4e487b7100000000000000000000000000000000000000000000000000000000600052602160045260246000fd5b600260030160009054906101000a900460ff1660048111156114c2577f4e487b7100000000000000000000000000000000000000000000000000000000600052602160045260246000fd5b1415611503576040517f08c379a00000000000000000000000000000000000000000000000000000000081526004016114fa9061280d565b60405180910390fd5b6002600481111561153d577f4e487b7100000000000000000000000000000000000000000000000000000000600052602160045260246000fd5b600260030160009054906101000a900460ff166004811115611588577f4e487b7100000000000000000000000000000000000000000000000000000000600052602160045260246000fd5b14156115c9576040517f08c379a00000000000000000000000000000000000000000000000000000000081526004016115c09061278d565b60405180910390fd5b600480811115611602577f4e487b7100000000000000000000000000000000000000000000000000000000600052602160045260246000fd5b600260030160009054906101000a900460ff16600481111561164d577f4e487b7100000000000000000000000000000000000000000000000000000000600052602160045260246000fd5b141561168e576040517f08c379a00000000000000000000000000000000000000000000000000000000081526004016116859061284d565b60405180910390fd5b60004790506000600260010160009054906101000a900473ffffffffffffffffffffffffffffffffffffffff1673ffffffffffffffffffffffffffffffffffffffff16826040516116de90612666565b60006040518083038185875af1925050503d806000811461171b576040519150601f19603f3d011682016040523d82523d6000602084013e611720565b606091505b5050905080611764576040517f08c379a000000000000000000000000000000000000000000000000000000000815260040161175b906128ed565b60405180910390fd5b60028060030160006101000a81548160ff021916908360048111156117b2577f4e487b7100000000000000000000000000000000000000000000000000000000600052602160045260246000fd5b02179055507f966ec6091e1be18ca42bd33bf7e8c91b6f7f9e63b4505d736f12daf434dd0c3e60405160405180910390a15050565b600080600084815260200190815260200160002060000160008373ffffffffffffffffffffffffffffffffffffffff1673ffffffffffffffffffffffffffffffffffffffff16815260200190815260200160002060009054906101000a900460ff16905092915050565b6000801b81565b60006004811115611892577f4e487b7100000000000000000000000000000000000000000000000000000000600052602160045260246000fd5b600260030160009054906101000a900460ff1660048111156118dd577f4e487b7100000000000000000000000000000000000000000000000000000000600052602160045260246000fd5b1461191d576040517f08c379a0000000000000000000000000000000000000000000000000000000008152600401611914906127ed565b60405180910390fd5b600073ffffffffffffffffffffffffffffffffffffffff16600260000160009054906101000a900473ffffffffffffffffffffffffffffffffffffffff1673ffffffffffffffffffffffffffffffffffffffff16146119b1576040517f08c379a00000000000000000000000000000000000000000000000000000000081526004016119a8906128cd565b60405180910390fd5b600047146119f4576040517f08c379a00000000000000000000000000000000000000000000000000000000081526004016119eb906127cd565b60405180910390fd5b60028001543414611a3a576040517f08c379a0000000000000000000000000000000000000000000000000000000008152600401611a319061288d565b60405180910390fd5b600260010160009054906101000a900473ffffffffffffffffffffffffffffffffffffffff1673ffffffffffffffffffffffffffffffffffffffff163373ffffffffffffffffffffffffffffffffffffffff161415611ace576040517f08c379a0000000000000000000000000000000000000000000000000000000008152600401611ac5906128ad565b60405180910390fd5b33600260000160006101000a81548173ffffffffffffffffffffffffffffffffffffffff021916908373ffffffffffffffffffffffffffffffffffffffff1602179055506001600260030160006101000a81548160ff02191690836004811115611b61577f4e487b7100000000000000000000000000000000000000000000000000000000600052602160045260246000fd5b02179055507f4ea1e6bdf25a6848116ceeb2e9e115fac34320126c902195ed306d6f63466de233604051611b9591906126b5565b60405180910390a1565b7fca8f4d80b9a601aeb89c087307d2965aac1bb4efd751b2467c503e418ab0a28681565b611bcc82610d17565b611bdd81611bd8611cc1565b611cc9565b611be78383611e46565b505050565b60028060000160009054906101000a900473ffffffffffffffffffffffffffffffffffffffff16908060010160009054906101000a900473ffffffffffffffffffffffffffffffffffffffff16908060020154908060030160009054906101000a900460ff16905084565b60007f01ffc9a7000000000000000000000000000000000000000000000000000000007bffffffffffffffffffffffffffffffffffffffffffffffffffffffff1916827bffffffffffffffffffffffffffffffffffffffffffffffffffffffff1916149050919050565b600033905090565b611cd382826117e7565b611d6257611cf88173ffffffffffffffffffffffffffffffffffffffff166014611f27565b611d068360001c6020611f27565b604051602001611d1792919061267b565b6040516020818303038152906040526040517f08c379a0000000000000000000000000000000000000000000000000000000008152600401611d59919061274b565b60405180910390fd5b5050565b611d7082826117e7565b611e4257600160008084815260200190815260200160002060000160008373ffffffffffffffffffffffffffffffffffffffff1673ffffffffffffffffffffffffffffffffffffffff16815260200190815260200160002060006101000a81548160ff021916908315150217905550611de7611cc1565b73ffffffffffffffffffffffffffffffffffffffff168173ffffffffffffffffffffffffffffffffffffffff16837f2f8788117e7eff1d82e926ec794901d17c78024a50270940304540a733656f0d60405160405180910390a45b5050565b611e5082826117e7565b15611f2357600080600084815260200190815260200160002060000160008373ffffffffffffffffffffffffffffffffffffffff1673ffffffffffffffffffffffffffffffffffffffff16815260200190815260200160002060006101000a81548160ff021916908315150217905550611ec8611cc1565b73ffffffffffffffffffffffffffffffffffffffff168173ffffffffffffffffffffffffffffffffffffffff16837ff6391f5c32d9c69d2a47ea670b442974b53935d1edc7fd64eb21e047a839171b60405160405180910390a45b5050565b606060006002836002611f3a91906129d5565b611f44919061297f565b67ffffffffffffffff811115611f83577f4e487b7100000000000000000000000000000000000000000000000000000000600052604160045260246000fd5b6040519080825280601f01601f191660200182016040528015611fb55781602001600182028036833780820191505090505b5090507f300000000000000000000000000000000000000000000000000000000000000081600081518110612013577f4e487b7100000000000000000000000000000000000000000000000000000000600052603260045260246000fd5b60200101907effffffffffffffffffffffffffffffffffffffffffffffffffffffffffffff1916908160001a9053507f78000000000000000000000000000000000000000000000000000000000000008160018151811061209d577f4e487b7100000000000000000000000000000000000000000000000000000000600052603260045260246000fd5b60200101907effffffffffffffffffffffffffffffffffffffffffffffffffffffffffffff1916908160001a905350600060018460026120dd91906129d5565b6120e7919061297f565b90505b60018111156121d3577f3031323334353637383961626364656600000000000000000000000000000000600f86166010811061214f577f4e487b7100000000000000000000000000000000000000000000000000000000600052603260045260246000fd5b1a60f81b82828151811061218c577f4e487b7100000000000000000000000000000000000000000000000000000000600052603260045260246000fd5b60200101907effffffffffffffffffffffffffffffffffffffffffffffffffffffffffffff1916908160001a905350600485901c9450806121cc90612b17565b90506120ea565b5060008414612217576040517f08c379a000000000000000000000000000000000000000000000000000000000815260040161220e9061276d565b60405180910390fd5b8091505092915050565b60008135905061223081612f8a565b92915050565b60008135905061224581612fa1565b92915050565b60008135905061225a81612fb8565b92915050565b60008135905061226f81612fcf565b92915050565b60006020828403121561228757600080fd5b600061229584828501612236565b91505092915050565b600080604083850312156122b157600080fd5b60006122bf85828601612236565b92505060206122d085828601612221565b9150509250929050565b6000602082840312156122ec57600080fd5b60006122fa8482850161224b565b91505092915050565b60006020828403121561231557600080fd5b600061232384828501612260565b91505092915050565b61233581612a41565b82525050565b61234481612a2f565b82525050565b61235381612a53565b82525050565b61236281612a5f565b82525050565b61237181612ad2565b82525050565b60006123828261294d565b61238c8185612963565b935061239c818560208601612ae4565b6123a581612b9f565b840191505092915050565b60006123bb8261294d565b6123c58185612974565b93506123d5818560208601612ae4565b80840191505092915050565b60006123ee602083612963565b91506123f982612bb0565b602082019050919050565b6000612411602283612963565b915061241c82612bd9565b604082019050919050565b6000612434601f83612963565b915061243f82612c28565b602082019050919050565b6000612457602383612963565b915061246282612c51565b604082019050919050565b600061247a602283612963565b915061248582612ca0565b604082019050919050565b600061249d602283612963565b91506124a882612cef565b604082019050919050565b60006124c0601583612963565b91506124cb82612d3e565b602082019050919050565b60006124e3602383612963565b91506124ee82612d67565b604082019050919050565b6000612506602083612963565b915061251182612db6565b602082019050919050565b6000612529601783612963565b915061253482612ddf565b602082019050919050565b600061254c602683612963565b915061255782612e08565b604082019050919050565b600061256f601f83612963565b915061257a82612e57565b602082019050919050565b6000612592600083612958565b915061259d82612e80565b600082019050919050565b60006125b5601083612963565b91506125c082612e83565b602082019050919050565b60006125d8601783612974565b91506125e382612eac565b601782019050919050565b60006125fb601683612963565b915061260682612ed5565b602082019050919050565b600061261e601183612974565b915061262982612efe565b601182019050919050565b6000612641602f83612963565b915061264c82612f27565b604082019050919050565b61266081612ac8565b82525050565b600061267182612585565b9150819050919050565b6000612686826125cb565b915061269282856123b0565b915061269d82612611565b91506126a982846123b0565b91508190509392505050565b60006020820190506126ca600083018461233b565b92915050565b60006080820190506126e5600083018761232c565b6126f2602083018661232c565b6126ff6040830185612657565b61270c6060830184612368565b95945050505050565b600060208201905061272a600083018461234a565b92915050565b60006020820190506127456000830184612359565b92915050565b600060208201905081810360008301526127658184612377565b905092915050565b60006020820190508181036000830152612786816123e1565b9050919050565b600060208201905081810360008301526127a681612404565b9050919050565b600060208201905081810360008301526127c681612427565b9050919050565b600060208201905081810360008301526127e68161244a565b9050919050565b600060208201905081810360008301526128068161246d565b9050919050565b6000602082019050818103600083015261282681612490565b9050919050565b60006020820190508181036000830152612846816124b3565b9050919050565b60006020820190508181036000830152612866816124d6565b9050919050565b60006020820190508181036000830152612886816124f9565b9050919050565b600060208201905081810360008301526128a68161251c565b9050919050565b600060208201905081810360008301526128c68161253f565b9050919050565b600060208201905081810360008301526128e681612562565b9050919050565b60006020820190508181036000830152612906816125a8565b9050919050565b60006020820190508181036000830152612926816125ee565b9050919050565b6000602082019050818103600083015261294681612634565b9050919050565b600081519050919050565b600081905092915050565b600082825260208201905092915050565b600081905092915050565b600061298a82612ac8565b915061299583612ac8565b9250827fffffffffffffffffffffffffffffffffffffffffffffffffffffffffffffffff038211156129ca576129c9612b41565b5b828201905092915050565b60006129e082612ac8565b91506129eb83612ac8565b9250817fffffffffffffffffffffffffffffffffffffffffffffffffffffffffffffffff0483118215151615612a2457612a23612b41565b5b828202905092915050565b6000612a3a82612aa8565b9050919050565b6000612a4c82612aa8565b9050919050565b60008115159050919050565b6000819050919050565b60007fffffffff0000000000000000000000000000000000000000000000000000000082169050919050565b6000819050612aa382612f76565b919050565b600073ffffffffffffffffffffffffffffffffffffffff82169050919050565b6000819050919050565b6000612add82612a95565b9050919050565b60005b83811015612b02578082015181840152602081019050612ae7565b83811115612b11576000848401525b50505050565b6000612b2282612ac8565b91506000821415612b3657612b35612b41565b5b600182039050919050565b7f4e487b7100000000000000000000000000000000000000000000000000000000600052601160045260246000fd5b7f4e487b7100000000000000000000000000000000000000000000000000000000600052602160045260246000fd5b6000601f19601f8301169050919050565b7f537472696e67733a20686578206c656e67746820696e73756666696369656e74600082015250565b7f54686973207472616e73616374696f6e20686173206265656e2072656c65617360008201527f6564000000000000000000000000000000000000000000000000000000000000602082015250565b7f416e20696e76616c6964206f7074696f6e207761732070726f76696465642e00600082015250565b7f5472616e73616374696f6e20616c726561647920686173206d6f6e657920696e60008201527f2069740000000000000000000000000000000000000000000000000000000000602082015250565b7f54686973207472616e73616374696f6e20697320616c7265616479206163746960008201527f7665000000000000000000000000000000000000000000000000000000000000602082015250565b7f54686973207472616e73616374696f6e20686173206265656e20726566756e6460008201527f6564000000000000000000000000000000000000000000000000000000000000602082015250565b7f596f7520617265206e6f74207468652062757965720000000000000000000000600082015250565b7f54686973207472616e73616374696f6e20686173206265656e2063616e63656c60008201527f6c65640000000000000000000000000000000000000000000000000000000000602082015250565b7f54686973207472616e73616374696f6e206973206e6f74207965742070616964600082015250565b7f496e76616c696420616d6f756e742070726f7669646564000000000000000000600082015250565b7f596f7520617265207468652073656c6c657220696e2074686973207472616e7360008201527f616374696f6e0000000000000000000000000000000000000000000000000000602082015250565b7f5472616e73616374696f6e20616c726561647920686173206120627579657200600082015250565b50565b7f5472616e73666572206661696c65642e00000000000000000000000000000000600082015250565b7f416363657373436f6e74726f6c3a206163636f756e7420000000000000000000600082015250565b7f596f7520617265206e6f74207468652073656c6c657200000000000000000000600082015250565b7f206973206d697373696e6720726f6c6520000000000000000000000000000000600082015250565b7f416363657373436f6e74726f6c3a2063616e206f6e6c792072656e6f756e636560008201527f20726f6c657320666f722073656c660000000000000000000000000000000000602082015250565b60058110612f8757612f86612b70565b5b50565b612f9381612a2f565b8114612f9e57600080fd5b50565b612faa81612a5f565b8114612fb557600080fd5b50565b612fc181612a69565b8114612fcc57600080fd5b50565b612fd881612ac8565b8114612fe357600080fd5b5056fea26469706673582212209e9e924e9b55e15e1d9b488f228caabc5e439284674b34e135c55bf593648a4264736f6c63430008040033a2646970667358221220e7e9b81e117fe581248dc1f9d17ac00affeb8fe7ee7455e0ef41cedcfb9715e264736f6c63430008040033",
  "linkReferences": {},
  "deployedLinkReferences": {}
}